:1020000000800020653700004D3700004D3700008C
:1020100000000000000000000000000000000000C0
:102020000000000000000000000000004D3700002C
:1020300000000000000000004D370000B93700002C
:102040004D3700004D3700004D3700004D37000080
:102050004D3700004D3700004D370000513700006C
:102060004D3700004D3700004D3700004D37000060
:102070004D370000BD3600004D370000C92100007B
:102080004D3700004D370000A52100004D370000FE
:10209000000000004D3700004D3700004D370000B4
:1020A0004D3700004D3700004D3700004D37000020
:1020B0000000000010B5064C2378002B07D1054B1B
:1020C000002B02D0044800E000BF0123237010BDA4
:1020D000800200200000000060CB0000044B10B51F
:1020E000002B03D00349044800E000BF10BDC046E8
:1020F000000000008402002060CB000040697047AF
:1021000037B500230A00694601AC0B808B7001686B
:102110002380A3700D68019B6946A84737BD002046
:1021200070477047C82040007047C8204000704783
:1021300010B501210400022001F06EFD8023DB00B8
:10214000A361014BE36110BD10000060012110B5D7
:102150000400080001F060FD1023A361014BE3615E
:1021600010BDC046100000600B4B036000234361AC
:1021700043608360013BC360038202338374074B77
:102180001A68002A00D11860054B1A68002A00D08E
:10219000906018607047C046B4C300001806002065
:1021A0001C06002010B5064B9A7BD20606D51022DD
:1021B000997B0A439A73034B1B68984710BDC0462E
:1021C000002C00420C03002010B50A4CE36ADB032C
:1021D00004D58023E26A5B021343E362E36ADB0710
:1021E00006D5054B1B6898470123E26A1343E36257
:1021F00010BDC0460020004210030020F0B5444B43
:1022000085B005000E004468994233D9E023228846
:10221000DB00134323808023DB006B61E77BFF0936
:10222000FCD1686904F068FB0390300004F0AEFB59
:10223000384903F073FE011C039803F06FFE011C84
:10224000354803F06BFE04F037FB431EAB61208A78
:10225000228B80B2009392B23B00390003F03FFB27
:1022600080B22082AB699BB22383E37BDB09FCD184
:1022700005B0F0BD294B2A4ACB18934207D8C0239A
:102280002288DB001343238080235B00C5E7254BB6
:10229000254ACB18934206D8A0232288DB0013439B
:1022A00023804023B9E7214B214ACB18934206D81B
:1022B00080232288DB00134323801023ADE71D4BCE
:1022C0001D4ACB18934206D8C02322889B00134393
:1022D00023800823A1E7194B194ACB18934206D84B
:1022E000802322889B0013432380042395E7154B0A
:1022F000154ACB18934206D8802322885B001343EB
:102300002380022389E723889BB22380012384E76B
:10231000E093040000247449001B374C7FC7FEFF84
:102320005F5B0300DFB1FFFF5FEA0000EFD8FFFF54
:102330000F27000077ECFFFF871300003BF6FFFF3D
:10234000C309000017FCFFFFDB050000F8B53D4B9B
:1023500005000E004468994227D9E0232268DB007B
:10236000134323608023DB006B61686904F0C4FAC7
:10237000071C300004F00AFB334903F0CFFD011CB9
:10238000381C03F0CBFD011C304803F0C7FD04F0FE
:1023900093FA0138A8612064A3681B06FCD42C4B77
:1023A0006364A368DB05FCD4F8BD2A4B2A4ACB182A
:1023B000934207D8C0232268DB00134323608023A5
:1023C0005B00D1E7254B264ACB18934206D8A023C1
:1023D0002268DB00134323604023C5E7214B224AD8
:1023E000CB18934206D880232268DB001343236076
:1023F0001023B9E71D4B1E4ACB18934206D8C023C1
:1024000022689B00134323600823ADE7194B1A4A47
:10241000CB18934206D8802322689B001343236085
:102420000423A1E7154B164ACB18934206D8802304
:1024300022685B0013432360022395E7236823602F
:10244000012391E7E093040000247449001B374CFA
:10245000FF0F00007FC7FEFF5F5B0300DFB1FFFFE0
:102460005FEA0000EFD8FFFF0F27000077ECFFFFC7
:10247000871300003BF6FFFFC309000017FCFFFFB6
:10248000DB05000070B5092001F064FB334C344DCE
:1024900034492880200001F0C8FC0023E95E0A22AC
:1024A000200001F016FD3049200001F0BEFC0A209A
:1024B00001F00EFC0A220100200001F00AFD2B4968
:1024C000200001F0B2FC2A4D0A22E978200001F038
:1024D00000FD2849200001F0A8FC0023E95E0A2243
:1024E000200001F0F6FC2449200001F09EFC234E60
:1024F0000A223178200001F002FD214D2000290040
:1025000001F093FC71780A22200001F0F8FC290008
:10251000200001F08AFCB1780A22200001F0F3FCCF
:102520001849200001F081FC174E0A223178200062
:1025300001F0E5FC2900200001F077FC71780A2207
:10254000200001F0DCFC2900200001F06EFCB178D5
:102550000A22200001F0D7FC70BDC046840800208C
:102560001403002014C400001CC400002DC400008B
:10257000000600203CC400004DC4000016030020EB
:1025800050CA00005EC400008A04002010B500217B
:102590000A2001F041FB10BD10B50A2001F098FBA4
:1025A000114B002805D001229A701A8801321A8036
:1025B00010BD0022995E98704A1E92B2F82A0FD878
:1025C000DA78002A03D10122DA700022EFE7012A2B
:1025D00001D10132F8E7022AFBD0032AF5D1F2E754
:1025E000F929F2DDD870F0E700060020F8B50127E0
:1025F0001E4E1F4C35683D4006D12000FFF7B4FD4C
:102600001C4B2584236037601B4E002320003E2294
:10261000310000F00BFF0123184F194C3D681D409D
:1026200007D12000FFF7A0FD164B2584236001236E
:102630003B60154D00233E222900200000F0F6FEED
:10264000330000221A705A709A7003339D42F9D1F8
:1026500000231900F21810000333BA30BC320170A5
:1026600041701170BA2BF5D1F8BDC046C8020020E8
:10267000CC020020D4C3000016030020A0020020DA
:10268000A4020020F8C30000D003002070B501248C
:10269000494B09201C7001F05DFA484B188000205E
:1026A000474B1870474B1C70474C2080A07001F0BE
:1026B00051FA03F0F9F80323E370FFF767FFFFF720
:1026C00095FFFA23414C5B0123612378002B3BD11A
:1026D0003F4A404B1A80404A5378DB09FCD1022123
:1026E000626813888B431380626813889BB21380DF
:1026F0006368DA7BD209FCD1198820320A431A8038
:102700006368DD7BED09FCD121692000FFF776FDD0
:10271000102263685D73597B0A4380215A732F4AE4
:10272000C9021160022219880A431A806268D37BA9
:10273000DB09FCD12A4B2B4AA3601360E1212A4814
:10274000490201F017FE70BD012BF7D1274A214B3A
:102750001A80214A5378DB09FCD102216268136890
:102760008B431360626893689B07FCD42169200047
:10277000FFF7ECFD6368DA6BDA639A685206D20FF2
:10278000FBD19A62996A01320A439A628022996A5D
:1027900052020A4380219A62104A09021160022201
:1027A00019680A431A60626893689B07FCD40C4B53
:1027B0000F4AA360C1E7C0460400002014030020B4
:1027C000FE050020FF05002000060020F00200208A
:1027D0001B400000020C0040000C004000E100E043
:1027E000F12B00000C030020840800201A40000098
:1027F00010030020F7B5031C33283FDD33235BB201
:1028000000936B46002100255D5F2E1C1D481E4A6B
:102810004318BA304018019000988A1844421F7833
:102820001078C01BA84200DD301C00B2A04200DAC4
:102830002000381818705F785078C01BA84200DD5F
:10284000301C00B2A04200DA2000381858709F787F
:102850009078C01BA84200DD301C00B2A04200DA14
:102860002000381898700198033303329842D6D16B
:10287000BA23BA315B009942C8D1F7BD1A06BED55A
:102880000023BCE7160300208A04002001220D4B20
:1028900010B51A700C4B002219001C00BA311A70C6
:1028A0005A709A7003339942F9D100231900E21843
:1028B00010000333BA30BC32017041701170BA2B72
:1028C000F5D110BD040000208A04002001220F4B26
:1028D00070B51A700E4BFF241A001D00F820DC2181
:1028E000BA321C705870997003339342F9D10022A8
:1028F000FF26F824DC21AB1818000332BA30BC33B1
:10290000067044701970BA2AF5D170BD0400002019
:102910008A040020F0B50122802600241C4B85B0DB
:102920001A7076002300BA3301931A4B1A4DE3183C
:10293000651919782A7891421FD159786A7891429D
:102940001BD19A78AB789A4217D13121002002F03E
:10295000BCFF31000700F02002F0B7FF310000900B
:10296000C82002F0B2FF6A4603AB127898702900C3
:1029700018001F705A7000F0FFFD019B03349C4249
:10298000D3D1BA235B009C42CCD105B0F0BDC04688
:1029900004000020160300208A040020F0B50A225B
:1029A00080270025194B85B01A707F00BA235B1B66
:1029B0006E420393164B174CF3183419197822788A
:1029C000914219D159786278914215D19A78A378B9
:1029D0009A4211D1380002F06DFF0190380002F0E8
:1029E00069FF0290380002F065FF6B461B79A0700A
:1029F00023706B461B7A6370039B03369E42D9D1CA
:102A0000054BBA3D9D42D1D105B0F0BD0400002078
:102A1000160300208A0400208CFEFFFFF0B587B06B
:102A200003F06AFF564903F083FD5649041C03F086
:102A30002FFA002800D0A1E0201C534903F06EFAC1
:102A4000041C5249201C03F041FC03F035FF822195
:102A50004F4BC9051870201C03F038FC03F02CFF05
:102A6000031C00B2002800DC012318B203F044FF6D
:102A7000011C484803F052FA03F01EFF464903B216
:102A8000201C019303F022FC011C434803F050FD7D
:102A900003F012FF802105B24900280002F015FF63
:102AA0008021060003AC4900280002F00EFF2670CA
:102AB00080210026607049002800A67002F005FF02
:102AC000802107004900280002F0FFFE80210090CD
:102AD0004900280002F0F9FE6B4680211B78E77060
:102AE000237160714900280002F0EFFE8021070089
:102AF0004900280002F0E9FE8021A77120724900F8
:102B00002800E67102F0E1FE80210700490028005C
:102B100002F0DBFEA772214D214F6672E0720026A3
:102B2000032474433A5D2B5D9A421DD13B192C1945
:102B300059786278914217D19A78A3789A4213D142
:102B40000199300003F068F81649084004D50423C1
:102B500001385B42184301300323584303AB191873
:102B60000322200005F0D8FD01363E2ED8D10E4BB1
:102B7000BA35BA379D42D2D107B0F0BD014C60E7FB
:102B800000007A4300002041000082420000C04063
:102B9000040000200000784200007F438A040020E7
:102BA0001603002003000080FE05002010B5012858
:102BB00006D0022808D0002801D1FFF7ABFE10BDD7
:102BC0006720FFF7EBFEFAE78020C000FFF726FF43
:102BD000F5E710B5002802D0012804D010BD080088
:102BE000FFF7DCFEFAE70800FFF718FFF6E7000042
:102BF00010B5FFF7D1FC134BD878032805D802F0A5
:102C000077FF020E1117FFF741FE00200E4B1856FA
:102C1000FFF7F0FD0D48017800F050FC10BDFFF704
:102C200055FEF2E700200A4B1856FFF7BFFFECE70E
:102C30000020084B0021595E074B1856FFF7C9FFCB
:102C4000E3E7C04600060020040000200406002040
:102C5000FE05002014030020FF05002010B504002D
:102C600000F0BEFD2388C01A80B23128F8D910BD0B
:102C70000B7B70B503734B7B040043738B7B0D00A0
:102C80008373CB7B0322C3730B7C03744B7C437431
:102C90000B6812310360123005F03EFD1523EB5630
:102CA000200063756B686360A360AB69A36170BD4E
:102CB000F0B585B002910A9903938B6801900133B6
:102CC0008B60CB680133CB600B6901330B6100264D
:102CD0009446039B350034003000019A029F6646FB
:102CE00074784D782D06240601D16D40C0466419D4
:102CF00000D3E44300D32406CE68240E74434D78F9
:102D00000E79751B4D702004624600969446009E15
:102D1000019A029F9760C046C0460326013EFDD13E
:102D2000400000D25760C046C046C0460826013E5B
:102D3000FDD15760C046C0460526013EFDD19760D3
:102D4000C046C0460326013EFDD1400000D2576078
:102D5000C04666463478C046C0460726013EFDD1CF
:102D60005760C046C0460526013EFDD19760C0466B
:102D7000C0460326013EFDD1400000D25760C04648
:102D80000D782D06240601D16D40C046C0460626AA
:102D9000013EFDD15760C046C0460526013EFDD12B
:102DA0009760C046C0460326013EFDD1400000D2D8
:102DB0005760C046641900D3E44300D324060726B5
:102DC000013EFDD15760C046C0460526013EFDD1FB
:102DD0009760C046C0460326013EFDD1400000D2A8
:102DE0005760C0468E68240E7443C0460726013ED5
:102DF000FDD15760C046C0460526013EFDD1976013
:102E0000C046C0460326013EFDD1400000D25760B7
:102E1000C0460D78CE78751B0D70C0460626013E63
:102E2000FDD15760C046C0460526013EFDD19760E2
:102E3000C046C0460326013EFDD1400000D2576087
:102E4000C046C046C0460826013EFDD15760C04678
:102E5000C0460526013EFDD19760C046C046032608
:102E6000013EFDD1400000D25760C0462004C0465C
:102E70000826013EFDD15760C046C0460526013EEA
:102E8000FDD19760C046C0460326013EFDD14000FB
:102E900000D25760C046C046C0460826013EFDD15C
:102EA0005760C046C0460526013EFDD19760C0462A
:102EB000C0460326013EFDD1400000D25760C04607
:102EC0006646B478C046C0460726013EFDD157602D
:102ED000C046C0460526013EFDD19760C046C046AB
:102EE0000326013EFDD1400000D25760C0468D78D8
:102EF0002D06240601D16D40C046C0460626013E7F
:102F0000FDD15760C046C0460526013EFDD1976001
:102F1000C046C0460326013EFDD1400000D25760A6
:102F2000C046641900D3E44300D324060726013EBB
:102F3000FDD15760C046C0460526013EFDD19760D1
:102F4000C046C0460326013EFDD1400000D2576076
:102F5000C0460E69240E7443C0460726013EFDD1CB
:102F60005760C046C0460526013EFDD19760C04669
:102F7000C0460326013EFDD1400000D25760C04646
:102F80008D784E79751B8D70C0460626013EFDD1A9
:102F90005760C046C0460526013EFDD19760C04639
:102FA000C0460326013EFDD1400000D25760C04616
:102FB0008E79B444C046C0460726013EFDD1576015
:102FC000C046C0460526013EFDD19760C046C046BA
:102FD0000326013EFDD1400000D25760C0462004C8
:102FE000C0460826013EFDD15760C046C0460526B2
:102FF000013EFDD19760C046C0460326013EFDD18B
:10300000400000D25760C046C046C0460826013E78
:10301000FDD15760C046C0460526013EFDD19760F0
:10302000C046C0460326013EFDD1400000D2576095
:10303000C04666467478C046C0460726013EFDD1AC
:103040005760C046C0460526013EFDD19760C04688
:10305000C0460326013EFDD1400000D25760C04665
:103060004D782D06240601D16D40C046C046062687
:10307000013EFDD15760C046C0460526013EFDD148
:103080009760C046C0460326013EFDD1400000D2F5
:103090005760C046641900D3E44300D324060726D2
:1030A000013EFDD15760C046C0460526013EFDD118
:1030B0009760C046C0460326013EFDD1400000D2C5
:1030C0005760C046CE68240E7443C0460726013EB2
:1030D000FDD15760C046C0460526013EFDD1976030
:1030E000C046C0460326013EFDD1400000D25760D5
:1030F000C0464D780E79751B4D70C0460626013EC0
:10310000FDD15760C046C0460526013EFDD19760FF
:10311000C046C0460326013EFDD1400000D25760A4
:10312000C046C046C0460826013EFDD15760C04695
:10313000C0460526013EFDD19760C046C046032625
:10314000013EFDD1400000D25760C0462004C04679
:103150000826013EFDD15760C046C046C046032642
:10316000013EFDD10D4F00966246BE6862B6013B3E
:1031700072B6BF68BC46BE4201D2094FF619674617
:10318000F61B87273F01BE4205D8002B00D0BDE5C6
:10319000039805B0F0BD0020FBE7C04610E000E05A
:1031A00080BB000000B5027B89B003AB1A70427B84
:1031B00010215A70827B9A70827C0592C27C0692A2
:1031C000027D0792C27BDA70027C1A71427C5A71CE
:1031D000427D9A7100930CC80248FFF769FD09B05F
:1031E00000BDC0461000006030B5040089B020303A
:1031F0000D00FFF733FD72B6290001A8FFF738FD77
:1032000001A8FFF7CFFF00280CD162B6C8239B00AE
:10321000013BFDD172B6290001A8FFF729FD01A8E5
:10322000FFF7C0FF62B600F0DBFA208409B030BDC2
:1032300000B58021027B89B003AB1A70427BC900C4
:103240005A70827B9A70827C0592C27C0692027DC3
:103250000792C27BDA70027C1A71427C5A71427DFD
:103260009A7100930CC80248FFF722FD09B000BD17
:103270001000006030B5040089B020300D00FFF769
:10328000EDFC72B6290001A8FFF7F2FC01A8FFF7D8
:10329000CFFF00280CD162B6C8239B00013BFDD1B3
:1032A00072B6290001A8FFF7E3FC01A8FFF7C0FFF1
:1032B00062B600F095FA208409B030BD0721F8B558
:1032C0000124194A137801330B401C4013708C40C1
:1032D0009A0701D5402214430422134201D020232F
:1032E0001C43050080270F3006001034E4B20C3573
:1032F0007F00A979002904D0380002F08DFC01304C
:10330000C1B24B1C63431B12E970DAB2002B08D127
:103310002B70002901D00139E9700135AE42E8D1A6
:10332000F8BD013A2A70F4E79C02002070B58AB01B
:103330000193867C05001E2003AC03916260A260AD
:1033400001A90322684405F0E7F9012E0CD1200001
:10335000FFF7B4FF0023A36163752B6821009B690D
:10336000280098470AB070BD002306932382F1E736
:1033700070B58AB00193867C05001E2003AC0391D2
:103380006260A26001A90322684405F0C5F9012E1C
:103390000DD12000FFF792FF032363750023A36183
:1033A0002B6821009B69280098470AB070BD002354
:1033B00006932382F0E700000123064810B503704E
:1033C000054B064A436000230549836002F084FBF5
:1033D00010BDC046F0020020002000420000002086
:1033E0002321000037B500236C462380A370984248
:1033F0000FD0CD5C002D09D0D45C002C06D0013557
:1034000001346C436D464443240CEC540133032BCC
:10341000EFD16B461A8899781000FF23120A1840E2
:1034200012020B401B04104318433EBDF8B50027A1
:1034300004000E001500BB4201DD17001D002368CB
:1034400020009B68984703237B43F6182368666037
:1034500065615B6920009847011E08D0054802F0AD
:10346000DBFB054D6B68834200D203006B602000DC
:10347000F8BDC04640420F000406002070B50D4C58
:10348000060023685A1C22608B4212DB00F0A2F96E
:10349000094D2B68C11A00D10131FA202368800040
:1034A000584302F02FFB00237080236000F092F954
:1034B000286070BD2006002024060020F0B505001D
:1034C0000E0087B06B68244C002B06D000F088F902
:1034D0002368C01A6B689842F4D300F081F9EB6856
:1034E0002060002B03D03000A968984706001B4BD2
:1034F0001C68002C2AD0A37C01936B88632B01D815
:103500000023A3742200210023680F325B680C3172
:103510000293636830000393FFF764FF05AB020476
:103520001870120E00025A70000E98701B8867699E
:1035300004AA90701380049B3A0020000399029F14
:10354000B8476B461B79A374A468D2E719212800F9
:10355000FFF794FF07B0F0BD140600201806002006
:10356000FF22044B1A7000225A80DA60013A9A60F6
:103570007047C046040600205622F0B5402720269A
:10358000037844788578D800C0B242431F401E407B
:103590005BB2120A002B64DB002F4FD1002E05D145
:1035A000D343DBB210001A00330003E05532D0B22F
:1035B000AB223B00FF2C20D0002C00D176E0002A6B
:1035C00003D0661C72431212D2B2002803D0661CCC
:1035D00070430012C0B2002B03D0661C73431B1251
:1035E000DBB2E443E4B2661C74432412E4B2121961
:1035F00000191B19D2B2C0B2DBB2FF2D1AD02C00B9
:103600006C436E1EB54124122D19EDB2002D51D020
:10361000002A03D06C1C62431212D2B2002803D0DD
:103620006C1C60430012C0B2002B03D001356B4309
:103630001B12DBB20A7048708B70F0BD002E0AD1ED
:10364000AB23552743437F421B12FF1A563AFFB262
:10365000D0B23A00A8E70026D0431300C0B232002F
:10366000A8E7002F0FD1002E09D1AB2343435520EB
:103670001B0A4042C01AC0B25533DBB2EFE7D34356
:103680003800DBB296E7002E09D110005530C0B2E9
:1036900055235B429B1ADBB2020030008AE716001A
:1036A000563EF6B2002055239B1AE6E7FF2318008A
:1036B0001A00A2E72B0028002A00BBE710B5024839
:1036C00002F031F810BDC0462806002013B512499B
:1036D000124800F06FFC1249124800F06BFC1249CE
:1036E000124800F067FC1249124800F063FC124CCB
:1036F0001249200000F05EFC1149124800F05AFC0B
:1037000000230193013300930722053321000E4863
:1037100001F078FF13BDC046000800426408002095
:10372000000C004268080020001000426C080020D5
:1037300000140042700800207408002000180042A5
:10374000001C00427808002028060020FEE7000048
:10375000034B10B51B68002B00D0984710BDC04626
:103760007C08002070B50F490F4CA14204D100F035
:103770008DF802F0D5F8FEE70C4D00238D42F6D00F
:10378000CA18E818A24205D3094B8242EFD0094972
:10379000002204E0006804331060F1E704C38B42A8
:1037A000FCD3E4E7000000208002002064CB00008E
:1037B00080020020780E002010B500F064F8002888
:1037C00001D100F055F810BD014B18607047C0469C
:1037D0007C080020014B18687047C0468008002014
:1037E000F7B51348012284461249134C8E6863686A
:1037F00005689B0E1340019288686268019F920ED3
:103800003A4067463F6893420ED1BD420CD1864292
:103810000AD35B19FA254868AD00861B07486B433D
:103820007043000DC018FEBD3D0013000600E3E725
:103830008008002010E000E000ED00E05555000099
:1038400070B5041E10D0FFF7CBFF050000F01AF88A
:10385000FFF7C6FF054B401B9842F7D9FA23013CFE
:103860009B00ED18002CF3D170BDC046E7030000AB
:1038700010B5034A13680133136000F05DFB10BDFF
:103880008008002070470020704700001E2270B59D
:1038900046484749436893431C3A1343436008230F
:1038A0008C6923438B61434C434B9C829C8A144319
:1038B0009C82DC681442FCD00124404A14701578C4
:1038C000254203D055786DB2002DF8DB01249460B9
:1038D000547864B2002CFBDB394C5460547864B2E9
:1038E000002CFBDB8224E4015480547864B2002C69
:1038F000FBDB02249C840E34DD682542FCD0314C75
:10390000DC621024DD682542FCD09D8C2E4C2C43BB
:103910009C841024DD682542FCD002249D8C8026E6
:103920002C439C844024DD683542FCD0DD68254270
:10393000F9D01024DD682542FCD00024946054782E
:1039400064B2002CFBDB214C5460547864B2002C30
:10395000FBDB1C6A1E4D2C4080251C621C6AAC439C
:103960001C62032393601B4B536053785BB2002BA4
:10397000FBDB0023FF240B72174A4B728B72CB7256
:10398000164B1A60164B174A1B6811689A065B01A2
:10399000C90E2340520F12020B431343124A1385E0
:1039A000802342681343436070BDC046004000411D
:1039B000000400400C06000000080040000C00401D
:1039C00001050100B905FF7D040A0000000703009E
:1039D000FFFCFFFF03060100006CDC020800002072
:1039E000246080002060800000400042FA212D4BBE
:1039F00010B51868890002F085F82B4B0138984201
:103A00004FD82A492A4A4860C020136A00061B0280
:103A10001B0A0343136200238B6007330B60802172
:103A2000136A09061B021B0A0B431362FC22214B7B
:103A3000196A0A431A62FF22196A12020A431A62B9
:103A4000A022196AD2020A431A621B4B1C005A7840
:103A500052B2002AFBDB194A5A80194B1A00597ED0
:103A6000C9090129FBD0C821890099800521D97095
:103A7000537EDB09012BFBD0C02300205B011361C7
:103A8000907000F023F863785BB2002BFBDB0D4BEA
:103A90000D4A6380D379DB09012BFBD0412353709E
:103AA00010BDFEE708000020FFFFFF0010E000E06F
:103AB00000ED00E000040040000C00401E4000004B
:103AC0000040004221400000004800421F4900B56C
:103AD0000B004A7ED209012AFBD001380A282FD8D0
:103AE00002F006F81B2E2E2E2E2E062E2E2411004E
:103AF0001A6917490A400F211A615A788A4311003E
:103B000001220A4310E01A6911490A400F211A6183
:103B10005A788A4311000322F3E71A690C490A40D4
:103B20000F211A615A788A435A7000BD1A690849F0
:103B30000A400F211A615A788A4311000222E0E7F5
:103B4000F022196912050A43F3E7C046004000421B
:103B5000FFFFFFF010B50121040000F0DBF8002C9E
:103B60000DD1284B1900DA79D209012AFBD00220A5
:103B70001A7882431A70CB79DB09012BFBD02249DA
:103B80000B004A7ED209012AFBD0182044431F486B
:103B90000A6900191F24007CA243204002430A61E5
:103BA0005A7ED209012AFBD0022219780A431A70E0
:103BB0005A7ED209012AFBD00222197B0A431A73CA
:103BC00001221A765A7ED209012AFBD00222197BE1
:103BD0000A431A731A7ED207FCD5588B80B25A7EDC
:103BE000D209012AFBD002211A788A431A705A7E20
:103BF000D209012AFBD0064B1A68064B196800F05F
:103C00007FF810BD004800420040004274C400002C
:103C1000100000200C000020182310B50824434396
:103C2000134AD0180457013412D001249A5643681D
:103C30009C4003290CD808000E49D2015218D31811
:103C4000403301F055FF0210060B02211970546039
:103C500010BD0621197054609461F9E706211970AE
:103C600054605461F4E7022119709460F0E7C04693
:103C700074C40000004400411823F0B508245843E0
:103C8000114A13181C5701341BD0012635005F68F8
:103C90008356BD400D4ADB019A18906805420BD14E
:103CA0000C00601E8441D219403210783440033633
:103CB000A400B04320431070044A9B18002901D18E
:103CC0005D61F0BD9D61FCE774C4000000440041EB
:103CD000182310B50824434307490020CA18145775
:103CE000013408D05B560549DB015B18186A53683C
:103CF000D8400123184010BD74C4000000440041A6
:103D0000914202D002D98A1AD0407047521A90408C
:103D1000FBE700001822424370B52D4E0300B21895
:103D2000127A52B2140001320ED0481C00240C2822
:103D30000AD801F0DDFE071F1F1F1F1F1F1F1F0BCB
:103D40000B0B0B0001246442200070BD092905D132
:103D500000211800FFF760FF0024F5E70A2901D1D0
:103D60000839F6E700240B29EED10A391800FFF7CD
:103D700053FFE9E7182201205343F218F356556820
:103D8000144ADB016C089B18C9B228401C19002892
:103D90000ED00F2030342278090102401143412215
:103DA000C9B25B192170403319780A431A70D3E7FE
:103DB00022000F26303214785B19B443214311706E
:103DC00041224033197804000A431A70BCE7C04608
:103DD00074C4000000440041F7B506000D000C005B
:103DE0008B180193019B671B9C4207D03368217895
:103DF0001B683000984701340028F3D13800FEBD1D
:103E000070B5040008000D0005F028FC23680200CE
:103E100029005B682000984770BD10B50B1E02D0CA
:103E2000FFF7EEFF0300180010BD10B5FFF7F5FF18
:103E300010BD10B503681B68984710BD10B5024946
:103E4000FFF7DEFF10BDC0460CC60000F0B58BB01A
:103E50006B461500002205330600DA770800012DB5
:103E600000D80A2509AC290001F0D2FECAB213001D
:103E700037330700DBB2092902D813003033DBB235
:103E8000013C2370002FEED121003000FFF7C5FF69
:103E90000BB0F0BDF8B506000C00151E04D1036888
:103EA000C9B21B689847F8BD0A2A0CD100290BDA61
:103EB0002D21FFF7BEFF614207002A003000FFF707
:103EC000C5FF3818EFE7D2B221003000FFF7BEFF80
:103ED000E9E770B50400FFF7DDFF05002000FFF7FC
:103EE000ADFF401970BD10B5002A04D10368C9B2F6
:103EF0001B68984710BDD2B2FFF7A8FFFAE710B5CC
:103F0000FFF7F1FF10BD70B50400FFF7ECFF0500EF
:103F10002000FFF793FF401970BD0000014B1860AF
:103F20007047C046140000200122024B52421A6022
:103F30007047C04614000020164A10B51368591C7B
:103F400026D0013B1360002B22D172B6124B134ACC
:103F50000433934213D9124A01211000147D0C42FC
:103F6000FCD02021148BFF319B085B00214311837F
:103F7000D3610C4B13800123027D1A42FCD0BFF3A6
:103F80004F8F094B094ADA60BFF34F8FC046FDE7F8
:103F900010BDC046140000200020000003020000F5
:103FA0000040004102A5FFFF00ED00E00400FA051B
:103FB00010007047016070479446F0B59E1E721E57
:103FC00096416246056892072F6836063A433243A7
:103FD0002A60072505AC24780068A4012940214304
:103FE00042680024022B00D05C031143214341604E
:103FF000F0BD30B5C0250368AD031C6812052A402A
:104000002243C0240904A40221401143196003681B
:104010005A6814435C6030BD0123026811680B4389
:10402000136003681A68D207FCD4DA69D207F9D49E
:1040300070470223026811680B4313600268D3695A
:104040009B07FCD4704703681A7ED20702D41A7EFD
:104050009207FCD57047002203685A8370470368B3
:10406000187E4007C00F70470368187EC00970476C
:10407000802302685B42117E0B431376704703680E
:10408000588B8007C00F704702230268518B0B4387
:10409000538370470368187EC007C00F70470368DA
:1040A000188DC0B2704703681A7ED207FCD589B25A
:1040B000012019857047012203689A757047012213
:1040C00003681A75704700000368104A934213D0C2
:1040D0000F4A934212D00F4A934211D00E4A934294
:1040E00010D00E4A93420FD001200D4A4042934215
:1040F00001D1063040B270470020FBE70120F9E70C
:104100000220F7E70320F5E70420F3E70008004268
:10411000000C00420010004200140042001800424F
:10412000001C0042F8B5FFF7CFFF00282CDBC300CE
:104130001C48FF22C01805230479C35603201840E9
:10414000C0008240C021D2438140002B1DDB1F25CF
:1041500001201D40C026A840134D7600A851C0265E
:104160009B089B005B19B6009F593A401143995137
:1041700028603F2323408024E4011C430B4B5C80D8
:104180005A7852B2002AFBDBF8BD0F200340083BEF
:1041900007489B089B001B18D86902401143D9614E
:1041A000E7E7C04610C6000000E100E0000C004058
:1041B00000ED00E0F8B504000F0016001D00FFF749
:1041C000B1FF2000FFF728FF1C21BB000B40710747
:1041D0002268090C0B431360842322689375012F16
:1041E0001AD11021012E00D008390C4B69431868F0
:1041F000C00001F087FC0722216802408B8952032E
:10420000DB04DB0C13438B81226803049089DB0CF5
:10421000400B400318439081F8BDC04608000020C1
:104220003F20704713B56B460268D9710733546855
:1042300019000122A04716BD10B50221006900F047
:1042400009FD034B1B6801335A1E9341181810BD1A
:104250006800002010B50321006900F011FD10BDB9
:1042600010B50321006900F0D9FC10BD10B5054C54
:1042700023685A1C04D103685B69984703002060D7
:10428000180010BD68000020074B0200186810B528
:10429000411C03D0012252421A6010BD0221106954
:1042A00000F0D8FDF9E7C0466800002010B5130003
:1042B000094A0400D079C0B2002805D1627E002AE4
:1042C00002D00123636006E00A002069032100F0A8
:1042D000CFFD0028F5D010BD1C00002010B50378DC
:1042E0004222023303700249024800F06DFE10BD05
:1042F00024000020A008002010B5017802004378B7
:104300000020A12908D1212B05D1072216491748E1
:1043100000F05AFE012010BD2129FCD1202B13D121
:1043200007221149114800F0EFFC96220E4BD200F3
:10433000196891420ED10124D87904400AD1FA209B
:10434000FFF7ECFD0020E6E7222B06D19278064B22
:10435000DA71EAE7FFF7E8FDF4E7232BDBD15288B7
:10436000034B1A60D7E7C0461C000020A0080020BD
:10437000180000200123437670470000FA22002134
:10438000054B92009A60054A596008321A60044A47
:1043900019761A617047C0468408002040C60000A4
:1043A000A00800207047704770B50F26CB1D01395B
:1043B00002003240D5B22C0000093034092A00DD59
:1043C00007341C70013B8B42F2D170BDA02110B5A7
:1043D0000400490001F087FB200010BDF8B5032957
:1043E00008D1304B8000C058002802D003689B6879
:1043F0009847F8BD822919D1C3B22B4D5A01AA188A
:1044000091692A4C80010C40C021890521439161AA
:104410002749083340187021506128685B011A5CF5
:104420008A43110030220A431A54E2E70029E0D1FE
:10443000C026C1B21C4C4B01E3189A681B4DB6054F
:104440002A4032439A601B4A800182185A600A004F
:104450000727246808325201115DB9430F0001217A
:10446000394311559F6912493D4040182E439E61C2
:1044700058617020115D81430800102101431155DE
:1044800099680D48A21808408021490301439960AA
:104490009968890B89039960402311790B43137143
:1044A000A7E7C046A4080020580D0020FFFFFF8F9B
:1044B000CC0800208C0A0020FF3F00F0EFF31083AF
:1044C00003600123436072B670470368002B02D17A
:1044D00062B6BFF36F8F7047F7B50500FC35EB6927
:1044E0000600002B18D196277F00C45D6846FFF7B1
:1044F000E5FF019BE4B2013B02D3F45DE4B2FAE7CD
:1045000068460193FFF7E1FF002C01D10020FEBDBA
:10451000E86AAB6AC01AFAE76846FFF7CFFF9E2247
:104520000024019B5200013B02D3B45CE4B2FAE7E1
:1045300068460193FFF7C9FF002CE7D0E86BAB6B2F
:10454000E8E7000030B54468FC3043698069DBB2BD
:104550005A01A2189168094D8004294000090143BD
:10456000916091680833890B8903916022685B012F
:10457000D318402219790A431A7130BDFF3F00F069
:10458000F7B50500FF21FC356A6943680A401B68DE
:10459000083252019A18D3790400DB0754D501265A
:1045A000D6716B6962680B405B01D318286A9A6800
:1045B0009204920C002822D1EA62EA6A002A40D0D2
:1045C0006A6B2E6268465A60FFF778FF9E273E218D
:1045D000019B7F00013BFF315A1C2ED096225200D6
:1045E000A654E25D581ED2B2002A05D06654684631
:1045F0000193FFF76AFFF7BD62540300ECE7EA633B
:10460000EA6B002A1DD000222A626A6A68465A6054
:10461000FFF754FF96273E21019B7F00013BFF31AE
:104620005A1C0AD09E225200A654E25D581ED2B2F5
:10463000002ADBD162540300F2E768460193FFF7DA
:1046400044FF2000FFF77EFF63681A686B69DBB2E6
:1046500008335B01D3187F22DA71CCE7F7B5070086
:1046600068463C00FFF72AFF0026FF22019BFC342E
:10467000013B0DD3E0682169884204DBE6682069CC
:10468000961B3618F4E72669E168761A013EEFE7D3
:1046900068460193FFF719FFE3696846002B52D182
:1046A000FFF70CFF9621019B4900013B5A1C0CD0DF
:1046B0007D5C5A1EEDB2002D05D168460193FFF7CF
:1046C00004FF2800FEBD1300F0E7684601930025B3
:1046D000FFF7FBFEFF21A36AB54214D0E26A9A42BB
:1046E00011D95A1CA262626AD3181878E368226949
:1046F0000133C0B20B40934203D0E268BA18107283
:10470000E3600135E7E7E26A9A42DAD10023A36267
:104710000133E36168469624FFF7D0FE64003E2231
:104720000021019BFF32013B581CC6D03955B85CB3
:104730005E1E002805D0B95438000193FFF702FF30
:10474000EDE73300F0E7FFF7B9FE9E21019B49003A
:10475000013B5A1C06D07D5C5A1EEDB2002DACD038
:104760001300F6E7684601930025FFF7AEFEFF2130
:10477000A36BB54202D0E26B9A421DD8E26B9A421B
:104780009FD100236846A363E3619E24FFF796FE52
:1047900064003E220021019BFF32013B581C00D1E6
:1047A0008BE73955B85C5E1E002817D0B954380025
:1047B0000193FFF7C7FEECE75A1CA263626BD318A4
:1047C0001878E36822690133C0B20B40934203D0EA
:1047D000E268BA181072E3600135C9E73300DDE71B
:1047E00010B50400FFF73AFF2300FC331969DA68BB
:1047F000914203D01B69E418207A10BD0120404289
:10480000FBE710B50400FC34FFF728FFE0682369DC
:10481000C01A01D50130FF3010BDF0B585B001924E
:1048200000910500FFF71AFF02A8FFF747FE0120DD
:104830000024FF26039B40425A1E531C1FD02B000E
:10484000FC3301998C4218D2D9681F69C91B01D564
:104850000131FF31002910D01969DF688C46010051
:10486000BC4506D019691F69691801373740097AB4
:104870001F61009F39550134E3E7013ADDE702A8E3
:104880000392FFF722FE200005B0F0BD37B56B465E
:10489000DC1D00230D0020002370FFF71FFD2B6897
:1048A0001818286001F0BEF8210001F077F82B6895
:1048B0001818286020783EBD02220B0010B59343E3
:1048C0000C00012B0BD10D4B08341B6864011C1923
:1048D000802321795B420B432371E27110BD01F00B
:1048E000A1F8210001F08EF80028F7D0034B08341E
:1048F0001B6864011C197F23E371EFE7580D00204A
:1049000070B50024364B012105000B201C70FFF709
:1049100083F901210B20FFF7AFF9324B01210C2065
:104920001C70FFF779F901210C20FFF7A5F920236E
:104930002D4A0F20D1690B43D36101222B490B78FB
:1049400013430B702A4B19788143197006211C7888
:104950002143197027490C7822430A701A780240C3
:104960001A70602219780A431A70234B234A5A801E
:104970005A78D209FCD12248FEF726FF214C7F2627
:10498000200001F061F8200001F076F80C200823E7
:104990002168CA7882431343CB7003212268D378FD
:1049A0008B4301390B43D370226813783340137063
:1049B000042322681678334313702268C1241389B4
:1049C000A40083431048138103591B021B0A03519F
:1049D0008023036013781943012311702B7070BD7D
:1049E000C1080020C00800200004004058440041D5
:1049F0003C44004159440041000C00400640000086
:104A000039540000580D002000E100E00078002833
:104A100010D00121084B1B681A898A431A81082289
:104A2000198B0A431A830422198B0A431A83002222
:104A3000024B1A607047C046580D0020500D0020F0
:104A400010B50F4A93699B0B9B0393611368022275
:104A5000FF331A729879823A02439A711A7A92074E
:104A6000FCD57F24074A2140937A0800A34319000C
:104A7000802301439172917A5B420B43937210BD84
:104A8000580D00200050004110B50B790C00002B90
:104A90000CD10800FFF730FC002801D0012010BD28
:104AA000094A93699B0B9B039361F7E700F0BAFFF8
:104AB000210000F097FF0028F0D1034A93699B0B77
:104AC0009B039361EBE7C046580D0020F8B50D003D
:104AD000832A19D1CBB2434C5A01A218916942489A
:104AE000AD010840C0218905014391613F4920681B
:104AF0006D187021083355615B011A5C8A431100FF
:104B000040220A431A54F8BD022A65D1384B8A0064
:104B1000D058002802D003689B699847A020400025
:104B200000F016FF80270600324B7F0003602D4BFC
:104B3000002143603A00083003F0F7FD340096226C
:104B40000023FC345200E360A36223616561E361EA
:104B5000A7612362E362B3541032A363E363B354E7
:104B60003E223800FF32B35403F0C2FD60623800C9
:104B700003F0BEFD2B006063FF201A4903405A0179
:104B80008A189168184F08330F40C02189053943AE
:104B900007279160134A5B011168AD005A5CBA4364
:104BA000170003223A435A5461697368014049016E
:104BB0005918636A4B60736862691B68024052014E
:104BC0009B1801221B18997A30000A439A72FFF74A
:104BD000B9FC074BEE5096E711002800FFF7FEFBEB
:104BE00091E7C046580D0020FFFFFF8FCC08002042
:104BF000A408002070C6000070B505000124064B13
:104C0000A200D258002A06D0210028000134FFF764
:104C10005DFF0A2CF3D170BD6C0000200B4BCAB2B3
:104C20000B488901C9185301C318596199690832A1
:104C3000890B89039961036852019A180223D37181
:104C40005179823B0B4353717047C046CC0800201A
:104C5000580D0020084B8A00D05810B5002803D00A
:104C60000368DB68984710BDC9B2044B4901591865
:104C700088688004800CF6E7A4080020580D002006
:104C800010B50C00FFF7E6FF00280CD0064BE4B28D
:104C90001B68083464011C19802362795B4213434A
:104CA00063710223E37110BD580D002070B5CBB2C3
:104CB000124A13485C0189018918021951609168F0
:104CC000104D08330D408021890229434025916011
:104CD0009168890B8903916001685A018A181679D5
:104CE0003543157195796D06FCD55B01C918CB79F3
:104CF000DB07FCD500198068C0B270BD8C0A0020AB
:104D0000580D0020FF3F00F070B5140040220B4BFF
:104D10000D001B68FF3359790A435A710021FFF7D0
:104D2000C5FFA04200D9200000230549A34203D0BB
:104D3000CA5CEA540133F9E770BDC046580D002043
:104D40008C0A002010B5C9B20B484901421893687B
:104D50009B049B0C3F2B0BD99468403B9B04A40BFA
:104D60009B0CA4032343936041188868C0B210BD14
:104D700093689B0B9B03F6E7580D0020F0B51C00D1
:104D80002F4B85B01B6806000D000192002B54D0FC
:104D90002C4F3978C9B2002902D10C20FEF76CFFE4
:104DA00064233B70284BAA00D058002808D0036821
:104DB00022005B68019998470400200005B0F0BD0F
:104DC00029003000FFF746FF844204D92900300053
:104DD000FFF740FF040029003000FFF7B3FF012177
:104DE000EBB21A4F03935B010293029A3B6801985E
:104DF0009B18FF335A7A0A435A72154BA901C918F6
:104E0000220003F089FC002CD7D029003000FFF7E6
:104E100021FF0028D1D14021039B3A6808335B0170
:104E2000D3181879014319710121D971029BD31844
:104E3000FF339A7A0A439A72BFE701246442BCE7BF
:104E4000500D0020C0080020A4080020580D0020AC
:104E50008C0A002013B56B46DC1D22000123FFF7EE
:104E60008DFF012801D1207816BD01204042FBE7CB
:104E7000F0B51E003A4B85B01B680F000192002B65
:104E80003FD08023DB019E423BD8364C2178C9B20B
:104E9000002902D10B20FEF7EFFE642300252370CA
:104EA000314BBA01D3180293002E2CD02F4B1B6824
:104EB0000393FF233B401C0000930834039B6401D1
:104EC0001C19A379DB0921D0294B2A49186800F065
:104ED00019FE294B1721584300F014FE274BE279A5
:104EE000920713D4DA5D002A01D10138F7D20122EA
:104EF000DA55009B5A011D4B9B189A69920B92033D
:104F00009A6101256D42280005B0F0BD00221B4BBF
:104F10003400DA55402E00D940242200019902982D
:104F200003F0FAFB009BA1045A01104B890C9B185B
:104F3000029A2D195A619A69361B920B92030A4301
:104F40009A61009B039A08335B01D3180222DA713D
:104F50005979823A0A435A71019B1B190193A3E7BD
:104F6000500D0020C1080020CC080020580D002062
:104F70000800002040420F0070110100C30800200B
:104F800070B50D001C000D4BAE01F618110030007D
:104F9000220003F0C1FBEDB209496D014D196E61AC
:104FA000AB69084A20001340AB61AB69A2049B0BBC
:104FB000920C9B031343AB6170BDC046CC0800202C
:104FC000580D0020FF3F00F0F7B5104B01901B7803
:104FD0000F001500002B0CD10D4B16001C78002C77
:104FE00009D00C4E0C4834882018641903F094FB47
:104FF00034802800FEBD002EFBD03A19330000217A
:105000000198FFF7BDFF2418361AF4E74C0C002076
:105010004D0D00204E0D00204D0C0020F8B5002055
:1050200000AF0E001500012A27D9D31D6A46DB0800
:10503000DB00D31A9D46080004F010FB6C460323E6
:10504000022200210130400020706370AA420DD27C
:10505000307800280AD0531CDBB20136A0549D42A0
:1050600003D00232E154D2B2F0E72A002100044812
:10507000FFF7AAFF431E9841C0B2BD46F8BDC04627
:10508000A0080020F0B50024012685B0184B0F00C1
:1050900069461E7005000094FFF7F8FB154B01A947
:1050A0000B806A3BFF3BCB716E3B0B72009B8C719C
:1050B00009334B800E4B4E7108711C703A00092F5A
:1050C0000FD00D4F09223E700C4E28000094348002
:1050D000FFF77AFF69462800FFF7D8FB32880849B6
:1050E0003C702800FFF770FF012005B0F0BDC046FE
:1050F0004C0C0020090200004D0D00204E0D002038
:105100004D0C0020F0B5CF7893B005000E00022FB3
:1051100009D1C9882D48FFF7B5FF441EA041C4B28C
:10512000200013B0F0BD00F07DFC310000F04AFC1F
:10513000002803D0C417241AE40FF1E7012F0FD180
:10514000F288082A0AD02249112A13D8D2B2002A9A
:1051500010D02800FFF738FF0124E1E71D49F5E7EB
:105160000400032FDCD1B378002B05D1F2881A4953
:10517000032AEBD90A78ECE7022B06D1B27917495A
:105180002800FFF74BFF0400CAE7012B02D1B279D8
:105190001349F5E7032BC3D1124B01A91868FFF798
:1051A00003F9114B03A91868FFF7FEF80F4B05A987
:1051B0001868FFF7F9F80E4B07A91868FFF7F4F81D
:1051C0006B460533DC77B27901A9D9E7A008002046
:1051D000A8C60000BAC600009EC6000090C6000027
:1051E000A2C600000CA0800040A0800044A0800067
:1051F00048A0800037B5040048780D000B2810D86F
:1052000000F076FC061B0F2B0F40456D494C66697C
:10521000097801AA002906D1022311802000FFF796
:10522000AFFE01203EBD002313802E4B1B78012BC7
:1052300000D1137002230021F0E78A780023012AAD
:1052400003D101AA1380284BF0E7264A1370274A9E
:1052500093699B0B9B039361E3E78D78012D06D146
:105260000021214B01AA1D7011702B00D6E70120EF
:10527000002DD7D11B4B1D4A187093699B0B9B03C4
:105280009361CFE789782000FFF7DAFBC9E72000B8
:10529000FFF738FFC6E70123154ACCE70B7800205B
:1052A000DB06BFD12000FFF7A7FC2A20AA78104B0D
:1052B000FF301A6002230D4A11680C5C23434A2414
:1052C0000B54FF340B5D2938FF3803430B55D4E7EB
:1052D0000123084AAFE78A78064B1A60B7E7002037
:1052E000A0E7C046C2080020CA080020580D0020D0
:1052F000500D0020540D0020474BF7B51C780600D8
:10530000002C7CD1454D2B689B8B1B070ED52100B3
:105310002000FFF763F82A6810231100FF31887A14
:1053200003438B723E4B1C60082393832B689A8B3C
:1053300052071FD504229A833A4A1378002B0AD0C9
:105340001378013BDBB213701378002B03D10121DA
:105350000B20FEF791FC344A1378002B0AD0137807
:10536000013BDBB213701378002B03D101210C2019
:10537000FEF782FC2B68FF331A7AD2061ED5102264
:105380001A72597930320A435A7160232749300022
:105390000A781A4234D1FFF72DFF2B68FF3300281B
:1053A00031D08022997952420A439A711A7A520670
:1053B00004D540221A72597A0A435A7201242700EE
:1053C0002B681B8CA343DBB20193019B23413B421F
:1053D00012D023002A6808335B01D318DA79D20788
:1053E00002D4DB799B0707D5114BA200D0580028C7
:1053F0000DD003681B6898470134082CE5D1F7BD30
:10540000FFF742FBC9E720210A4A9171CEE7E1B2DA
:105410003000FFF751FAEFE74D0D0020580D002046
:10542000500D0020C1080020C00800208C0A002078
:10543000A4080020FF50004110B50248FFF75CFFB0
:1054400010BDC046A0080020014B024A1A607047F8
:10545000580D0020005000410120704710B503682E
:10546000014A1B6A984710BD130400000300FC3377
:10547000D9699A69914203D0DB69C018007D7047F1
:1054800001204042FBE710B504000069FEF7C4FDAF
:1054900022000023FC329361D36186229200A4187B
:1054A0006360A36010BDF02001403039484248419C
:1054B0007047F0231B011940802306209B0099426E
:1054C0000AD00133FF330130994205D080230238DE
:1054D0005B00994200D0002070470F20014000205F
:1054E000012903D00239481E8141481C7047000041
:1054F0008923F0B5182685B002919B000400C05C9A
:10550000330008214343324D1700EB185956FEF77C
:1055100001FC304B0821E05C33004343EB18595643
:10552000FEF7F8FB2C4BE25C0393022A09D11133FE
:10553000E05CFF2805D008214643AE197156FEF7FE
:10554000E9FB8A26B600A05DFF2819D00121FEF7ED
:1055500063FB1822A35D21495A43AB56AD18DB010A
:1055600058188B21890060501D4901225B188C213D
:105570008900635069688A408D21890062501A60F1
:105580000122029B11002069FEF714FE3900200061
:10559000FFF78FFF390005002000FFF79EFF39005D
:1055A00006002000FFF77FFF3300009029002069EC
:1055B0000122FEF701FD0B4B2069E25C039BE15CDD
:1055C000FEF717FD2069FEF734FD05B0F0BDC046BB
:1055D00074C40000250200002702000018440041A6
:1055E0001444004126020000802210B5040052003D
:1055F000002103F09AF823000022FC335A602000B7
:105600009A6010BDF7B51D0008AB1B78040000932D
:1056100009AB1B781600019300234360FA239B001B
:105620008360114B0F00083303601430FFF7DCFF79
:1056300020001D30FF30FFF7D7FF89236A469B000B
:105640002761E654094B1278E554094B2000E254D7
:105650006A46084B1279E2548A22293BFF3B9200AA
:10566000A3541032A354FEBDCCC600002502000096
:1056700026020000270200000300FC3359689A68E4
:10568000914204DB5A689868801AFF307047986826
:105690005B68C01A0138F9E710B51D30FF30FFF71D
:1056A000EBFF10BD030070B5FC33D9699A690400A3
:1056B00091421AD0DA698218157DDA690132D2B2C4
:1056C000DA618A239B00E35CFF2B0CD020001430AE
:1056D000FFF7D2FF0A2806DD8C238D229B00920063
:1056E000E358A2581A60280070BD01256D42E8E712
:1056F0000300FC3358689B68C01A01D50130FF30A5
:10570000704710B5040020001D30FF30FFF7F0FF98
:105710000028F8D12069FEF796FC10BD10B51430B2
:10572000FFF7E6FF10BD10B504000069FEF7A7FC07
:10573000002805D02069FEF7B2FC2069FEF7A4FC22
:105740002069FEF78CFC002820D02069FEF7A7FC1A
:105750002200FC329369D1690133DBB28B4203D062
:1057600091696118087593618A239B00E35CFF2BA4
:105770000CD020001430FFF77FFF092806DC8B23B4
:105780008D229B009200E358A2581A602069FEF710
:1057900081FC00281AD020001D30FF30FFF7A8FF41
:1057A000002822D086239B00E31899685A6891420A
:1057B00018D08E219A684900A218515C9A6801326B
:1057C000D2B29A60C9B22069FEF76DFC2069FEF77B
:1057D0004BFC002805D02069FEF74AFC2069FEF743
:1057E0003AFC10BD01214942ECE72069FEF767FC55
:1057F000ECE7000070B5040000690D00FEF74AFCFC
:1058000000283ED1FF2686239B00E3185A6899683A
:10581000013232408A4223D1EFF31083DB070DD4EB
:105820001E4B5B68DB05DB0DEDD0103B5BB2002B44
:105830000DDB9B08C0331A4A9B009B582069FEF77A
:1058400029FC0028DFD02000FFF76DFFDBE70F22E7
:105850001340083B9B08134A9B009B181B68EDE70D
:105860005A68013216409A68964205D08E215A68CD
:105870004900A21855545E602069FEF71CFC012007
:1058800070BD20001D30FF30FFF732FF0028B9D176
:1058900029002069FEF707FCF1E7C04600ED00E0B3
:1058A00000E100E01CED00E010B5002801D003F09D
:1058B00049FE10BD10B5041E05D003F067FE21009F
:1058C00000F090FA0C00200010BD10B504008842D2
:1058D00003DA081AFFF7EEFF2418200010BD10B5F8
:1058E0001C00431A0298511A001B584300F094F907
:1058F000001910BDFEE7704710B5FCF7C7FEFCF7B6
:10590000C1FDFDF7BFFF034B002BF8D000E000BF47
:10591000F5E7C0460000000010B5FFF7EDFF0000FE
:1059200010B5FEF763F802F0BFFEFFF7E4FF0120B9
:10593000FDF786FF054C2000FEF7E2FF2000FFF791
:1059400065F8FFF7E9FF002010BDC046A008002061
:1059500010B502F0CDFE10BD10B502F0D3FE10BDA3
:1059600010B50200EFF3108172B60A4B18680028D8
:1059700001D10948186018688218EFF30884A24220
:1059800004D21A60002900D162B610BD0120404245
:10599000F8E7C0465C0E0020780E002070B50E00BF
:1059A00000254468002C0BD0236831005B68200080
:1059B0009847002802DB2D18E468F3E701256D42C3
:1059C000280070BD70B50D004468002C08D0236815
:1059D00029009B6820009847002802D1E468F4E77A
:1059E000200070BD70B50D004468002C08D02368FD
:1059F00029001B6820009847002802D1E468F4E7DA
:105A0000200070BD70B50D004468002C08D02368DC
:105A10002900DB6820009847002802D1E468F4E7F9
:105A2000200070BD0121054A10B5136804480B40E1
:105A300003D1044C43600480116010BD600E00204F
:105A4000640E00200204000070B50400012304CCA1
:105A50000500117820000B431370802200215200B2
:105A600002F063FE2B689A78D207FCD49A789207EA
:105A7000F9D45C6270BD00001F22144BF0B51B68A6
:105A8000590B9C0C9B01114014405B0F914200D1BB
:105A900005211F2C00D1023C072B00D1043B0268DA
:105AA0008F01158D0A491F26294039431185056844
:105AB0003440298D0A00B24322432A850068190325
:105AC000028D044B13400B430385F0BD246080001E
:105AD0003FF8FFFFFF8FFFFF0B0010B5010018001C
:105AE00002F0D4FD10BD10B5FFF736FF10BD000069
:105AF00002B4714649084900095C49008E4402BC61
:105B00007047C046002243088B4274D303098B427E
:105B10005FD3030A8B4244D3030B8B4228D3030C7D
:105B20008B420DD3FF22090212BA030C8B4202D31F
:105B30001212090265D0030B8B4219D300E0090A47
:105B4000C30B8B4201D3CB03C01A5241830B8B4250
:105B500001D38B03C01A5241430B8B4201D34B0339
:105B6000C01A5241030B8B4201D30B03C01A52419E
:105B7000C30A8B4201D3CB02C01A5241830A8B4223
:105B800001D38B02C01A5241430A8B4201D34B020C
:105B9000C01A5241030A8B4201D30B02C01A524170
:105BA000CDD2C3098B4201D3CB01C01A5241830924
:105BB0008B4201D38B01C01A524143098B4201D35E
:105BC0004B01C01A524103098B4201D30B01C01A89
:105BD0005241C3088B4201D3CB00C01A5241830803
:105BE0008B4201D38B00C01A524143088B4201D330
:105BF0004B00C01A5241411A00D201465241104690
:105C00007047FFE701B5002000F0F0F802BDC04684
:105C10000029F7D076E7704703460B437FD4002274
:105C200043088B4274D303098B425FD3030A8B4230
:105C300044D3030B8B4228D3030C8B420DD3FF229A
:105C4000090212BA030C8B4202D31212090265D068
:105C5000030B8B4219D300E0090AC30B8B4201D31B
:105C6000CB03C01A5241830B8B4201D38B03C01A62
:105C70005241430B8B4201D34B03C01A5241030BD9
:105C80008B4201D30B03C01A5241C30A8B4201D38A
:105C9000CB02C01A5241830A8B4201D38B02C01A35
:105CA0005241430A8B4201D34B02C01A5241030AAC
:105CB0008B4201D30B02C01A5241CDD2C3098B4291
:105CC00001D3CB01C01A524183098B4201D38B010E
:105CD000C01A524143098B4201D34B01C01A5241B1
:105CE00003098B4201D30B01C01A5241C3088B42F6
:105CF00001D3CB00C01A524183088B4201D38B00E1
:105D0000C01A524143088B4201D34B00C01A524182
:105D1000411A00D201465241104670475DE0CA0F59
:105D200000D04942031000D34042534000229C4619
:105D300003098B422DD3030A8B4212D3FC22890123
:105D400012BA030A8B420CD3890192118B4208D3F9
:105D5000890192118B4204D389013AD0921100E05B
:105D60008909C3098B4201D3CB01C01A524183096F
:105D70008B4201D38B01C01A524143098B4201D39C
:105D80004B01C01A524103098B4201D30B01C01AC7
:105D90005241C3088B4201D3CB00C01A5241830841
:105DA0008B4201D38B00C01A5241D9D243088B4297
:105DB00001D34B00C01A5241411A00D2014663463A
:105DC00052415B10104601D34042002B00D549429E
:105DD000704763465B1000D3404201B5002000F0DD
:105DE00005F802BD0029F8D016E770477047C04695
:105DF0008446101C62468C46191C634600E0C0466F
:105E00001FB501F0C1FC002801D40021C8421FBD0C
:105E100010B501F019FC4042013010BD10B501F081
:105E2000B3FC002801DB002010BD012010BDC046DE
:105E300010B501F0A9FC002801DD002010BD0120F3
:105E400010BDC04610B501F03BFC002801DC00206D
:105E500010BD012010BDC04610B501F031FC002876
:105E600001DA002010BD012010BDC0468446081C88
:105E70006146FFE71FB500F0D9F9002801D40021E1
:105E8000C8421FBD10B500F05BF94042013010BDA3
:105E900010B500F0CBF9002801DB002010BD012077
:105EA00010BDC04610B500F0C1F9002801DD00208A
:105EB00010BD012010BDC04610B500F069F90028E2
:105EC00001DC002010BD012010BDC04610B500F05F
:105ED0005FF9002801DA002010BD012010BDC04686
:105EE00070B500220C4B04000D00FFF7B5FF002831
:105EF00004D12000290002F085FA70BD064B002273
:105F00002000290001F01AFF02F07CFA80231B0612
:105F10009C466044F1E7C0460000E041F8B55746B2
:105F20004E464546DE464402E0B546008846640AD1
:105F3000360EC70F002E63D0FF2E24D08023E4003E
:105F4000DB041C43002399469B467F3E4346424662
:105F50005D02D20F5B006D0A1B0E9046924665D023
:105F6000FF2B55D080220021ED00D2047F3B15434A
:105F7000F61A43464A467B400F2A00D98DE06D4809
:105F8000920082589746002C54D108239946063B2C
:105F9000FF269B46DAE70025534602291BD003293A
:105FA00000D1BFE0012928D030007F30002820DD5B
:105FB0006A0704D00F222A40042A00D004352A019F
:105FC00003D530005C4A80301540FE2803DCAC016C
:105FD000640AC2B201E0FF2200246402D205600A12
:105FE000DB07104318433CBC90469946A246AB469B
:105FF000F8BD0122101A1B287CDD00220024ECE7EA
:10600000002C1DD104239946033B00269B469DE7A7
:10601000FF3E002D20D1022143464A467B400A43E1
:106020000F2AD8D84548920082589746002D19D19A
:106030000121F1E70C239946093BFF269B4685E7A2
:10604000200002F005FB7626431F9C400023764289
:10605000361A99469B4679E74A4603231A439146E6
:10606000032186E7280002F0F3FA431F36189D400B
:10607000763600217DE780240023E403FF22ACE78D
:1060800000258023DB031C4228D01D4226D12B4350
:106090005C02640A4346FF229FE762016C01A24250
:1060A00024D21B210025013E012710006D00520063
:1060B000002801DB944201D8121B3D43013900291D
:1060C000F3D11400621E944125436DE7BA46594648
:1060D00025005346022900D061E77CE78023DB03DB
:1060E0001C436402640A3B00FF2276E7121B1A215C
:1060F0000125D9E79E362A00B5402C00C240651E16
:10610000AC411443620704D00F222240042A00D07D
:106110000434620103D4A401640A00225DE7012271
:1061200000245AE78024E4032C436402640AFF221B
:1061300053E7C04600C70000FFFFFFF740C700005D
:1061400070B542004E024C0045026D0A120EC30F9C
:10615000760A240EC90FFF2A0FD0FF2C11D0012080
:10616000A24200D070BDB542FCD18B420DD0002AB6
:10617000F8D12800451EA841F4E70120002DF1D1F7
:10618000EBE70120002EEDD1E9E70020EAE7C04669
:1061900070B54A004E02450244006D0A240EC30F3A
:1061A000760A120EC90FFF2C15D0FF2A0ED0002C34
:1061B00015D1002A01D1002E1CD0002D14D08B4205
:1061C00027D00220013B1840013870BD002EEED0D0
:1061D00002204042F9E7002DFAD1FF2A0ED0002A12
:1061E0000ED1002EEDD00BE00123013999430800B8
:1061F0000130EAE70020002DE7D0E2E7002EE7D1EA
:106200008B42DED1944205DD0221581E0840013840
:10621000DBE70024A24204DCB542D2D80020B5421C
:10622000D3D2581E012398430130CEE730B5420047
:1062300044024D02C30F4800640A120E6D0A000E9C
:10624000C90FFF2A12D0FF280CD0002A12D1002833
:1062500019D1002D17D1002C2BD00220013B184062
:10626000013826E0002DF0D0022022E0002CFBD1E6
:10627000FF281FD000281FD1002D1DD10220013B77
:106280001840013815E0002C0ED08B42E5D10022D9
:10629000904204DCAC42E0D80020AC4209D2581E47
:1062A00001239843013004E0012301399943080098
:1062B000013030BD002DD7D18B42CED18242E7DDF7
:1062C0000221581E08400138F3E7C046F0B54E469B
:1062D00057464546DE46E0B543025B0A450083B0BB
:1062E0000F1C99462D0EC60F002D57D0FF2D24D020
:1062F0008020DB00C0041843002381469A469B4659
:106300007F3D7C027A00FB0F640A120E984623D070
:10631000FF2A4BD0E30080240020E4047F3A1C4392
:10632000AD186B1C47460193534677403A000F2B3C
:1063300048D87D499B00CB589F46002B00D085E074
:1063400008339A46063B9B467C027A00FB0FFF25EA
:10635000640A120E9846DBD1002C00D090E0524621
:1063600001231A4392460120DBE74C4658461700AA
:10637000022824D0032800D1CFE0002200230128E6
:106380004DD15802D205400AFF071043384303B0ED
:106390003CBC90469946A246AB46F0BD002B5BD173
:1063A00004239A46033B00259B46AAE7FF35002CB1
:1063B00060D1524602231A4392460220B1E7FF22DF
:1063C0000023DEE74B461B0C9C464B462604360C4E
:1063D000180461463300220C6446000C43434E43CC
:1063E0005043544380191A0C1218964203D9802145
:1063F00049028C4664441B041B0C1004C018830122
:106400005E1EB341800E1843130C1B199B010343FE
:106410001C00230179D5012362081C401443019A12
:106420007F32002A4DDD630704D00F232340042B65
:1064300000D00434230103D53C4B019A1C40803228
:10644000FE2ABCDCA3015B0AD2B29AE70C239A466F
:10645000093BFF259B4654E7180002F0F9F84A462D
:10646000431F76259A4000236D4291462D1A9A4685
:106470009B4646E7524603231A439246032050E7C1
:10648000200002F0E5F8431F2D1A9C40763D0020C5
:1064900047E780230027DB03FF2272E7424666E7D7
:1064A0004C463200584662E780234A46DB031A42D4
:1064B00022D01C4220D123435B025B0A4746FF22C5
:1064C0005FE701239A1A1B2A21DC23000199D3409C
:1064D0009E318C401A0023005C1EA34113435A07CF
:1064E00004D00F221A40042A00D004335A0111D4D8
:1064F0009B015B0A002244E780234A46DB031343E7
:106500005B025B0A3700FF223BE7019587E7002229
:10651000002336E70122002333E78023DB032343F4
:106520005B025B0AFF222CE780C70000FFFFFFF73A
:10653000F8B54746CE464400C20F80B54702480230
:10654000400A8446664648007F0A240EF60025006D
:106550009046FB00000EC90FB146FF2800D185E030
:1065600001267140261A914257D0002E43DD0028A3
:1065700000D07FE04946002900D1AAE0013E002E6C
:1065800000D0F7E05B1A5A0100D48BE09B019C0914
:10659000200002F05DF805388440854200DDD3E03C
:1065A000451B230020200135EB40451BAC40621EFB
:1065B00094412343072400251C40012241460A4000
:1065C000002C04D00F211940042900D004335901B4
:1065D00000D480E00135ECB2FF2D00D0A3E0FF2411
:1065E00000235B02E405580AD207204310430CBC89
:1065F00090469946F8BD002E74D1601CC0B20128A7
:1066000000DCA7E04A469C1A620100D5B6E0002CE7
:10661000BED1002200240023E3E7002E00DC85E049
:10662000002846D0FF2C49D080224846D20410438F
:10663000814601221B2E09DC20204C46801B844011
:106640004A462000F240441EA04102439B185A01D2
:1066500028D50135FF2D00D1A8E001220724944957
:106660001A405B080B4013431C40A6E7002E00D0E5
:1066700078E775E7FF2C54D080224946D2041143B5
:10668000894601221B2E09DC20214846891B8840AF
:106690004A460100F240481E81410A439B1A5A01B2
:1066A00000D573E7012241460A40590700D089E727
:1066B00011E04846002858D1FF2C0CD1DB08002BF4
:1066C00000D18CE78020C00303435B025B0AFF24F8
:1066D00087E7FF2C25D0DB08FF2DF0D05B025B0A9B
:1066E000ECB27EE7002C4DD0FF2818D08024E404C3
:1066F000724223431B2A00DDC4E01C002025D44045
:10670000AA1A93405A1E934123434A460500D31ABE
:10671000884638E7721CF8D0F243FF28EAD10A0015
:106720004B46FF25D7E79B015B0A5AE7002E41D174
:10673000651CE9B2012945DDFF2D00D14FE7072493
:106740004B445B081C4038E707225A4B2D1A234064
:10675000144032E7002C1DD1002B7AD14B46002B80
:1067600000D191E00A000025B5E7013E002E19D1C5
:106770004B446CE7FF2C84D1FF25ACE74A468846A2
:10678000D41A05E7002BC5D10A00FF28C8D00500A0
:106790004B46A0E7002B49D14B46002B77D00A008F
:1067A000FF2598E7FF2C00D043E787E70A00FF2486
:1067B000002316E7002C15D1002B57D1FF28E6D176
:1067C0004B467BE7002C20D1002B57D049460029AF
:1067D00053D04B445A0168D50724364A1C40012542
:1067E0001340EAE6FF28EBD08022D204764213431E
:1067F0001B2E53DC2025AD1B1A00AB40F2405C1E63
:10680000A34113434B44050021E7002BD8D0494650
:10681000002900D152E78021C9030F4200D14DE782
:106820006046084200D049E74B4647E74846FF2507
:10683000002800D14FE78022D203174204D06046DF
:10684000104201D14B46884601224146FF250A40AD
:1068500041E7484600281FD01A1A500120D54A4661
:106860000724D31A1C4088460025A6E6741CC9D00C
:10687000F643FF28BCD14B4620E799464B460025FE
:10688000DB082BE7012340E700220023A9E6802351
:106890000022DB03FF24A4E600251CE70123B1E767
:1068A000002AF1D013000025FCE60025FAE6C046D8
:1068B000FFFFFF7DFFFFFFFB41024200C30F490ABC
:1068C000120E00207E2A0DD99D2A0CD880200004AB
:1068D0000143952A0ADC9620821AD1404842002BB7
:1068E00000D108007047034A9818FBE7963A914098
:1068F000F4E7C046FFFFFF7F70B500283DD0C31707
:10690000C5185D40C40F280001F0A2FE9E22121A95
:10691000962A07DCD2B2082833DD083885406802A1
:10692000400A23E0992A0BDD052329001B1AD940D0
:1069300003001B339D402B005D1EAB4119430D002E
:10694000052801DD431F9D402B000F490B406E07BA
:1069500009D00F263540042D05D004335D0102D542
:106960009F220B40121A9B01580AD2B24002D20554
:10697000400AE4071043204370BD00240022002099
:10698000F4E76802400AF1E7FFFFFFFB70B5041E61
:1069900034D001F05DFE9E22121A962A07DCD2B294
:1069A00008282EDD083884406002400A21E0992A38
:1069B00009DD030021001B3399404B1E994105233B
:1069C0001B1ADC400C43052801DD431F9C402300BB
:1069D0000D490B40650709D00F252C40042C05D02C
:1069E00004335C0102D59F220B40121A9B01580A06
:1069F000D2B24002D205400A104370BD00220020EE
:106A0000F7E76002400AF4E7FFFFFFFBF0B54F46EF
:106A10004646D6460C000903C0B5490A470F5E003A
:106A200039431F03DB0F9C4665007B0A570F1F434A
:106A30006D0DE40F760DA146C000B846D200AB1B29
:106A400064457BD0002B5FDD002E00D0A4E03E002B
:106A5000164300D112E15E1E002E00D09EE1871A7F
:106A60004346B84280410125C91A4042091A0B0227
:106A700000D431E149024E0A002E00D16EE130000F
:106A800001F0E6FD0300083B1F2B00DD61E1202241
:106A90003900D21A9E40D1409F400E439D4200DDF6
:106AA00051E15D1B6B1C1F2B00DD7CE12021C91A0D
:106AB0003D0030008F408840DD40791E8F4131001D
:106AC00007222843D940002507433A40002A09D02D
:106AD0000F233B40042B05D03B1DBB42BF417F42EF
:106AE000C9191F000B0200D426E26A1CC64B5505CB
:106AF0006D0D9A4200D106E1C44AFF080A405307CF
:106B000052023B43120B8EE0002B00D0B8E06B1C0E
:106B10005B055B0D012B00DC30E1871A4346B84270
:106B2000B641CB1A76429E1B330200D54CE13B00A6
:106B30003343A1D100220024002570E0002B00DCAB
:106B4000E5E0002E00D183E0AF4EB54260D0802654
:106B500036043743B846382B00DC3EE14346134346
:106B60001F007A1E97413F18874280414042091812
:106B70000B0200D4B0E0A44B01359D4200D1C3E02C
:106B8000A24A7B080A4001210F401F435108D30746
:106B900007221F433A4099E79B4EB54238D08026E2
:106BA00036043743B846382B00DDDCE01F2B00DC11
:106BB00030E11E004746203EF740BC46202B04D063
:106BC0004026F31A46469E403243170063467A1E1B
:106BD00097411F43CCE0002B00D104E2434613430E
:106BE00000D159E14B07C00818438023C9081B0393
:106BF000194208D04546ED081D4204D14346D0084D
:106C0000590708432900420FC9007F4D1143C000B6
:106C10004B07CA087C49C00803438D4268D0120361
:106C20006D05120B6D0D002112031800130B0A0DD8
:106C300012051A43764B2D0513402B435B00E407E6
:106C40005B08234319001CBC90469946A246F0BD40
:106C50003E00164312D05E1E002E00D000E18718C1
:106C60008742804141444042091801250B0233D537
:106C7000022585E764463300414610001D00C7E742
:106C8000002D00D0DAE00C000443F3D05C1C00D1EE
:106C90009FE15D4CA64200D12FE1DB43382B00DDA4
:106CA00066E11F2B00DD83E120240500E41A0F00BC
:106CB000DD40D940A0404346A7405B1A441EA04196
:106CC00098462F433843171ABA42924143465242DC
:106CD000991A64463500CAE607223A40002A00D0D5
:106CE000F6E64B07CA084849FF083B438D4296D158
:106CF0001900114300D19EE1802109030A431203C8
:106D0000120B414D8FE71500002200238BE7002B6B
:106D100000D0C7E06B1C5F057F0D012F00DCF1E0A8
:106D2000394DAB4200D1B9E085180A00854289414E
:106D30004244494251180722CF076D082F434908A2
:106D40003A401D00C2E607223049ED1A31403A4070
:106D5000BCE63E002838864000279FE6380001F058
:106D600077FC20308EE6434613431F007A1E97417E
:106D7000C71BB84280414042091A78E60E003B002A
:106D800006431343002D61D1002E00D0F4E0002B08
:106D900000D11BE164463900100039E71A4FBB42AD
:106DA0007AD03300FFE630001F3DE840202B03D0AF
:106DB0004021CB1A9E4037437B1E9F410722074349
:106DC0003A400021002589E7171A4346BA42B641E6
:106DD000591A76428E1B64464EE61F2B00DDADE04D
:106DE00020264746F61AB740B9461700B246DF409C
:106DF0004E463E4337005646B240561EB2411743F8
:106E00004246DA408918AEE6FF070000FFFF7FFF29
:106E1000FFFF0F8020264746F61AB740B9461700F5
:106E2000B246DF404E463E4337005646B240561EFD
:106E3000B24117434246DA40891A99E77F4CA6428D
:106E40005BD0802424045B42214327E7002E0CD131
:106E5000002B00D1CBE0644639001000774DD7E617
:106E6000764FBB4218D0330075E6002B14D04B0789
:106E7000C00818438023C9081B03194207D0FC0827
:106E80001C4204D17907D0080843E14621004C4652
:106E9000420FC9001143C000684DB9E61D00002231
:106EA0000023C0E6002D5BD10D00054300D1E2E6D2
:106EB0005D1C00D1B0E0614DAE421FD0DB43382BEA
:106EC00071DC1F2B00DD96E020250F00ED1AAF408E
:106ED000B9460700AA46DF404D463D432F005546C0
:106EE000A840D940451EA84188440743BF1897428F
:106EF00092415142414435003AE6644635004146EC
:106F0000100085E60B000343002D00D063E6002B44
:106F1000F5D04346134300D17AE687188742804173
:106F200007224144404209183A400B0200D4D5E6FA
:106F3000434B01351940C9E5380069E61E00474654
:106F4000203EF740BC46202B04D04026F31A46468C
:106F50009E403243170063467A1E97411F4302E664
:106F6000364DAE42CAD080252D045B422943A6E7A8
:106F70000843411E8841A6E6002B00D148E6871A47
:106F80004346B842B641CB1A76429E1B33024BD5DC
:106F9000171A4346BA429241591A5242891A072295
:106FA00064463A4092E501430F00791E8F419DE708
:106FB0001C000F00203CE740202B03D04024E31AA4
:106FC00099400843411E884138437CE60022002452
:106FD00025E6171A4346BA429241591A5242891A73
:106FE0006446350043E541461000144D10E680220A
:106FF0000024120380E61D000F00203DEF40BC4638
:10700000202B03D04025EB1A994008430700634624
:10701000781E87411F4369E7871897429B41414487
:107020005B42C9183500A3E53B003343CED00722AD
:1070300031003A4052E600231A00F4E5FF07000051
:10704000FFFF7FFFF0B55746DE464E464546E0B5AA
:10705000834607000E03480085B092461C00360B9D
:10706000400DCD0F002800D19DE0954B984239D0BE
:107070008023F6001B041E43924A7B0F334399463C
:10708000944603006344009300230026FF0002930C
:1070900023031B0B98466300E40F52465B0D0194DB
:1070A00000D1B3E086498B4200D19EE04246D10038
:1070B000802212040A435146490F11438B468149ED
:1070C00052468C4600996344CB1A0021D2000093AB
:1070D0002B0063409A460F2E00D905E17A4BB6008B
:1070E0009B599F465B463343994600D0B8E0022344
:1070F0000826002700900293CAE7CB463A0002997F
:107100000195019B9A46022927D0032900D180E2EC
:10711000012944D06D49009B8C4663441C00002C1F
:1071200038DD530700D013E2D2085B46DB0109D5F6
:107130005946674B19408B468021C9008C46009BFD
:1071400063441C00634B9C4207DC5B4664055F079D
:107150005B0217431B0B620D02E000230027584A15
:1071600000211B031C0B0B0D1B05234314055A4A5E
:10717000380013401C4353466400DB0764081C437B
:10718000210005B03CBC90469946A246AB46F0BDF6
:107190000122524201231B1B382B00DCADE10022EF
:1071A00000230027DCE75B46334399465ED0002E80
:1071B00000D18AE1300001F04BFA03000B3B1C2B9D
:1071C00000DD7BE11D22D31A5A460100DA4008395E
:1071D0008E4013005F46334399468F403F4B002655
:1071E0001B1A00930023029352E7414653460B4378
:1071F0003B499B468C46009B634400935B46002BB7
:107200003BD1022300221E43022161E74346134380
:107210009B4637D04346002B00D162E1404601F047
:1072200017FA03000B3B1C2B00DD53E10200414623
:10723000083A914088461D21CB1A5146D9400B008F
:1072400041460B439B46534693401A00009B2549F9
:107250009C46604403008C4663440093002137E75A
:107260000323B14600900C26029311E700230093FC
:1072700001330426002702930AE70323C3461E4373
:10728000032125E701331E430022012120E70023CB
:107290009A46802300271B03094A61E78023494659
:1072A0001B03194200D1E2E05946194200D0DEE04A
:1072B0000B431B0317001B0BA246014A50E7C046B5
:1072C000FF07000001FCFFFFC0C70000FF03000034
:1072D000FFFFFFFEFE070000FFFF0F800DFCFFFF1A
:1072E00001F8FFFFF3030000D94500D9CBE000D13E
:1072F000C6E03C0048460027009B013B00935B46EC
:10730000160E1B021E431302984633041B0C9946AB
:10731000310C0191FEF77CFC4A4642430B04210CE0
:10732000050019438A4207D98919013D8E4203D8C5
:107330008A4201D9851E8919881A0199FEF768FCCD
:1073400009048C464A46210464464243090C030062
:1073500021438A4204D98919013B8E4200D8F1E0C9
:107360002D041D43AB464346891A4246280C12049D
:107370001D0C5B46140C22001B041B0C5A43039487
:107380006B434443029568431B19150CEB189C4250
:1073900003D980246402A44660441C0C15041B0419
:1073A0002D0C20185D19814277D373D00C1AA24A94
:1073B0007D1BAF42BF419446009B7F426344E01B6C
:1073C0001C00864200D1DBE00199FEF721FC4A4611
:1073D00042430B04290C070019438A4207D9891933
:1073E000013F8E4203D88A4201D9871E8919881A23
:1073F0000199FEF70DFC09044A46894629044D46C9
:107400004243090C030029438A4207D98919013BE9
:107410008E4203D88A4201D9831E89193F04891AF2
:107420003A00039F1A43380013041B0C584381464B
:107430000298150C6F43434345434846000C84466D
:10744000DB1963449F4203D980204002844665448F
:1074500048461F0C00041B04000C7D191818A94293
:1074600000D284E000D17FE001231A4357E6802355
:107470004A461B0313431B031B0BAA466F4A6FE6C6
:10748000BA4200D935E74B46DC0758087B081C4355
:10749000FF0734E70024AF4289D247444745A4415F
:1074A0005B466442A4196418013BA6421ED2A04266
:1074B0006DD800D1B6E0241A9B4678E703005A46FF
:1074C000283B9A400027914688E6584601F0C0F8CC
:1074D000203072E603005246283B9A409346002231
:1074E000B4E6504601F0B4F820309AE6A642E2D164
:1074F000B845DCD9341A9B4659E71F2B65DC504C44
:107500000099A4465C46614408008C40110082400A
:10751000D940501E82410C4314435A46DA401300AE
:10752000620709D00F222240042A05D02200141D30
:107530009442894149425B181A0262D50122002314
:1075400000270DE68A4200D80AE7831E891907E75B
:107550000F231340042B00D1E6E5171D97429241FB
:1075600053429B44FA08E0E5002800D1D7E57118A2
:10757000531EB14227D3A94215D358D01A0073E73E
:10758000002B00DC04E6012300229B44CDE502230E
:107590004744474589415B429C46494289190C1939
:1075A000E344241A03E743465F0047459B41B8463E
:1075B0005B429E19023A8919A94200D054E740451E
:1075C00000D051E7ABE51A00F6E71F215F464942BC
:1075D0000C1BE740202B07D01A49009B8C466344C4
:1075E00018005B4683401A43501E82413A430727E6
:1075F0000023174009D00F21002311401400042953
:1076000095D122005F075B021B0BD20817430022B3
:10761000A6E5802359461B030B431B0317001B0BD6
:10762000064A9DE5BD42B2D89B460024BFE6804590
:10763000B9D31A00C3E7C046FF030000FF070000EC
:107640001E0400003E040000F0B54F464646D646F4
:107650008446C0B58046194E18030F034D00000B39
:107660005C0082463F0B6D0DC90F9146640DDB0F28
:107670000120B5420AD0B44203D0A54201D15745FA
:107680000CD01CBC90469946A246F0BD66463E43CF
:10769000F7D1AC42F5D154461443F2D10120C8458C
:1076A000EFD1994207D0002DEBD163461F4338003C
:1076B000471EB841E5E70020E3E7C046FF070000AA
:1076C000F0B54F464646D6464D00C0B50E03C90F2D
:1076D0008A462C491F035C008046360B6D0D91468F
:1076E0003F0B640DDB0F8D421ED08C4216D0002D57
:1076F0001ED130438446002C01D13A4323D0624648
:10770000002A1AD09A4529D0514602200139084052
:1077100001381CBC90469946A246F0BD3900114381
:10772000E5D002204042F4E73043FAD1AC420FD01A
:10773000002C0FD13A43E7D00CE00122013B9343E8
:1077400018000130E5E763460020002BE1D0DBE7BD
:107750003A43E6D19A45D7D1A542D5DCA54205DB0F
:10776000BE42D1D808D00020BE42D2D2504601231A
:10777000013898430130CCE7C845C5D80020C8453A
:10778000F4D3C6E7FF070000F0B54F464646D6469D
:107790004D00C0B50E03C90F8A462E491F035C0079
:1077A0008046360B6D0D91463F0B640DDB0F8D420D
:1077B00018D08C4211D0002D18D130438446002CB3
:1077C0001ED13A431CD163460020002B30D05146D5
:1077D00002200139084001382AE039001143EAD07B
:1077E000022025E03043FBD1AC4226D0002C26D12C
:1077F0003A4324D15146022001390840013817E0AC
:107800006246002A0FD09A45E1D1A54205DBBE426F
:10781000DDD819D00020BE420AD2504601230138DB
:107820009843013004E00122013B934318000130EA
:107830001CBC90469946A246F0BD3A43D0D19A4529
:10784000C5D1A542C3DCE0E7C845C0D80020C84583
:10785000E3D3EDE7FF070000F0B55746DE464E469E
:107860004546E0B5834606000F03480087B09246C0
:107870001D003F0B400DCC0F002800D16FE0DE4B08
:10788000984238D08023FF001B041F43730F3B43F3
:107890000193DA4B0027994600239B46F60081446A
:1078A0002B0369001B0B52469846490DED0F00292A
:1078B00000D185E0D04B994200D173E04346DA0015
:1078C00080231B0413435246CC48520F8446134373
:1078D000524600206144D200894421006940009151
:1078E0008C46012149448A460F2F00D990E0C449B3
:1078F000BF00CF59BF465B463B43019300D06AE1CE
:1079000002230827002681469B46C9E732005846D5
:10791000019B61460091022800D175E0032800D147
:10792000FEE1012800D02CE10023002700260025DD
:107930003F032A0D3F0BB34812053A4302401B0593
:107940001343009A5B00D1075B080B43300019001A
:1079500007B03CBC90469946A246AB46F0BD5B469C
:107960003B43019300D12FE1002F00D1A5E1380066
:1079700000F06EFE03000B3B1C2B00DD96E11D2288
:10798000D31A5A460100DA405E4608398F40130088
:107990008E403B4301939C4B00271B1A99460023C2
:1079A0009B467DE7414653460B4393498C46E14451
:1079B000002B00D01AE102220220174300228CE79C
:1079C000134300D10DE14346002B00D181E1404635
:1079D00000F03EFE02000B3A1C2A00DD72E10100BD
:1079E000434608398B4098461D239A1A5346D34084
:1079F0001A004346134352468A404946081A8249B0
:107A000089468144002068E77B4B002700268EE7EB
:107A1000140C1204120C1100370C3604350C794387
:107A200028008C462E006043604483465643210064
:107A3000300C80465846794340440291844506D92B
:107A40008846802149028C46E04441460291360432
:107A5000010C360C00048B4681191E0C1B041B0CF8
:107A60000391190079438C46280075436544A84664
:107A70005843050C45447743A94203D98021490264
:107A80008C466744290C8C4639000004000C2D04F8
:107A90002D186144AB4405915946049101990F0496
:107AA0003F0C080C390051434243904602008C467B
:107AB000090C8B4662437C4344445C44A04503D993
:107AC0008021490288464244210C884661460904C7
:107AD000090C8C4639005943434370437E430F0CD5
