:1020000000800020853500006D3500006D35000032
:1020100000000000000000000000000000000000C0
:102020000000000000000000000000006D3500000E
:1020300000000000000000006D350000D9350000F0
:102040006D3500006D3500006D3500006D35000008
:102050006D3500006D3500006D35000071350000F4
:102060006D3500006D3500006D3500006D350000E8
:102070006D350000DD3400006D350000ED210000FD
:102080006D3500006D350000C92100006D35000080
:10209000000000006D3500006D3500006D3500005A
:1020A0006D3500006D3500006D3500006D350000A8
:1020B0000000000010B5064C2378002B07D1054B1B
:1020C000002B02D0044800E000BF0123237010BDA4
:1020D000800200200000000090C20000044B10B5F8
:1020E000002B03D00349044800E000BF10BDC046E8
:1020F000000000008402002090C200004069704788
:1021000037B500230A00694601AC0B808B7001686B
:102110002380A3700D68019B6946A84737BD002046
:1021200070477047C82040007047C8204000704783
:10213000C82040007047000010B5012104000820AD
:1021400001F07AFC8023A361014BE36110BDC0461E
:102150001000006010B501210400072001F06CFCA4
:1021600080239B00A361014BE36110BD90000060E0
:1021700010B501210400062001F05EFC80235B0005
:10218000A361014BE36110BD900000600B4B036045
:102190000023436143608360013BC36003820233D9
:1021A0008374074B1A68002A00D11860054B1A681F
:1021B000002A00D0906018607047C04628BB00001D
:1021C000280600202C06002010B5064B9A7BD2066C
:1021D00006D51022997B0A439A73034B1B689847D4
:1021E00010BDC046002C00423403002010B50A4C3C
:1021F000E36ADB0304D58023E26A5B021343E362F4
:10220000E36ADB0706D5054B1B6898470123E26AA2
:102210001343E36210BDC046002000423803002093
:10222000F0B5444B85B005000E004468994233D99F
:10223000E0232288DB00134323808023DB006B61D3
:10224000E77BFF09FCD1686903F010FF03903000C1
:1022500003F056FF384903F0A5FC011C039803F076
:10226000A1FC011C354803F09DFC03F0DFFE431E7A
:10227000AB61208A228B80B2009392B23B0039007E
:1022800002F07FF880B22082AB699BB22383E37BAC
:10229000DB09FCD105B0F0BD294B2A4ACB1893428B
:1022A00007D8C0232288DB001343238080235B00F0
:1022B000C5E7254B254ACB18934206D8A023228890
:1022C000DB00134323804023B9E7214B214ACB187D
:1022D000934206D880232288DB00134323801023F7
:1022E000ADE71D4B1D4ACB18934206D8C023228868
:1022F0009B00134323800823A1E7194B194ACB18ED
:10230000934206D8802322889B0013432380042312
:1023100095E7154B154ACB18934206D8802322889F
:102320005B0013432380022389E723889BB2238029
:10233000012384E7E093040000247449001B374C18
:102340007FC7FEFF5F5B0300DFB1FFFF5FEA0000B6
:10235000EFD8FFFF0F27000077ECFFFF8713000087
:102360003BF6FFFFC309000017FCFFFFDB05000081
:10237000F8B53D4B05000E004468994227D9E0238B
:102380002268DB00134323608023DB006B616869F4
:1023900003F06CFE071C300003F0B2FE334903F07B
:1023A00001FC011C381C03F0FDFB011C304803F04C
:1023B000F9FB03F03BFE0138A8612064A3681B060B
:1023C000FCD42C4B6364A368DB05FCD4F8BD2A4B1A
:1023D0002A4ACB18934207D8C0232268DB00134354
:1023E000236080235B00D1E7254B264ACB1893421C
:1023F00006D8A0232268DB00134323604023C5E7EF
:10240000214B224ACB18934206D880232268DB0056
:10241000134323601023B9E71D4B1E4ACB18934288
:1024200006D8C02322689B00134323600823ADE72E
:10243000194B1A4ACB18934206D8802322689B0076
:10244000134323600423A1E7154B164ACB1893428C
:1024500006D8802322685B0013432360022395E79C
:1024600023682360012391E7E0930400002474496A
:10247000001B374CFF0F00007FC7FEFF5F5B0300B0
:10248000DFB1FFFF5FEA0000EFD8FFFF0F2700007A
:1024900077ECFFFF871300003BF6FFFFC309000046
:1024A00017FCFFFFDB05000010B5092001F062FA00
:1024B000014B188010BDC0463C03002010B5002120
:1024C0000A2001F0B9FA10BD10B50A2001F010FB86
:1024D000114B012804D11A88987001321A8010BD5E
:1024E00000210022985E9970421E92B2F82A0ED8FE
:1024F000DA788A4203D10122DA700022EEE7012A5B
:1025000001D10132F8E7023A012AF6D8F3E7F928B7
:10251000F3DDD970F1E7C04610060020F8B50127B9
:10252000284E294C35683D4006D12000FFF72EFE8D
:10253000264B258423603760254E00232000282267
:10254000310000F083FE0123224F234C3D681D40E3
:1025500007D12000FFF71AFE204B258423600123BA
:102560003B600023200028221D4900F06FFE01235C
:102570001C4F1D4C3D681D4007D12000FFF706FE93
:102580001A4B2584236001233B6000231849200057
:10259000282200F05BFE00233400B42019007834B8
:1025A0004000F218E5181170517091700332954295
:1025B000F9D178338342F4D10E48017800F08EFED1
:1025C000F8BDC046F0020020F402002048BB000025
:1025D0003E030020C8020020CC0200206CBB00009B
:1025E000B6030020A0020020A402002090BB00003F
:1025F0002E0400201406002070B5002001F0BAF966
:1026000001F0A4FE0122444B09201A7001F0B2F936
:10261000424B434A188000231370424A1370424AC7
:1026200013809370D370FFF749FFFFF777FFFA230A
:102630003E4C5B0123612378002B36D13C4A3D4B55
:102640001A803D4A5378DB09FCD102216268138865
:102650008B431380626813889BB213806368DA7BB4
:10266000D209FCD1198820320A431A806368DD7BC5
:10267000ED09FCD121692000FFF7D2FD102263682B
:102680005D73597B0A4380215A732C4AC902116039
:10269000022219880A431A806268D37BDB09FCD1C5
:1026A000274B284AA360136070BD012BFCD1264A3A
:1026B000204B1A80204A5378DB09FCD10221626842
:1026C00013688B431360626893689B07FCD421698D
:1026D0002000FFF74DFE6368DA6BDA639A685206F2
:1026E000D20FFBD19A62996A01320A439A62802220
:1026F000996A52020A4380219A62104A09021160C3
:10270000022219680A431A60626893689B07FCD426
:102710000B4B0E4AA360C6E7040000203C030020D8
:102720000E0600200F0600201006002018030020CF
:102730001B400000020C0040000C004000E100E0E3
:102740008D290000340300201A40000038030020C7
:10275000F7B5031C002838DA002300255BB25E427F
:102760001C4F1D4C791978377A192C1901920A7867
:102770002078801AB04200DA3000984200DD18005C
:1027800010186278C0B20870121AB24200DA320031
:102790009A4200DD1A004F78BC4662444A70A27823
:1027A000101AB04200DA3000984200DD18008A7832
:1027B00003348018019A887003318A42D7D1B42239
:1027C000783552009542CBD1F7BD42B20A2AC4DD1A
:1027D0000A23C2E73E030020A604002001220B4B7F
:1027E00070B51A7000230A48B42405001900783522
:1027F00064001A18EE181170517091700332B242D1
:10280000F9D17833A342F4D170BDC0460400002052
:10281000A604002001220C490C4B0800F0B51A70E8
:10282000FF240022F8257830DC27531886181C7006
:102830005D709F700333B342F9D1B42378325B00EB
:102840009A42F1D1F0BDC046A60400200400002049
:10285000F0B50122802600241C4B85B01A7076004A
:102860002300783301931A4B1A4DE3186519197830
:102870002A7891421FD159786A7891421BD19A786F
:10288000AB789A4217D13121002001F070FD310060
:102890000700F02001F06BFD31000090E62001F010
:1028A00066FD6A4603AB12789870290018001F7005
:1028B0005A7000F071FD019B03349C42D3D1B423C4
:1028C0005B009C42CCD105B0F0BDC04604000020A6
:1028D0003E030020A6040020F7B503F0C7FBEA2161
:1028E000890503F071FA1A4903F06EFA03F09EFBB2
:1028F00080270025174B7F00187078235B1B6E42E2
:102900000193154B154CF31834191978227891421C
:1029100014D159786278914210D19A78A3789A426A
:102920000CD1380001F018FD0090380001F014FDC2
:102930006B461B78A070237000236370019B0336E5
:102940009E42DED1064B783D9D42D6D1F7BDC046B2
:1029500000002041040000203E030020A6040020C7
:1029600098FEFFFF10B5002802D0012803D010BD4B
:10297000FFF76EFFFBE76720FFF7AEFFF7E710B545
:10298000002802D10800FFF7A7FF10BD10B5FFF720
:102990009BFD124BD878032805D802F027FF020EC2
:1029A0001117FFF71BFF00200D4B1856FFF7D0FE45
:1029B0000C48017800F092FC10BDFFF72BFFF2E706
:1029C0000020094B1856FFF7CDFFECE70020074B1E
:1029D00067211856FFF7D3FFE5E7C0461006002031
:1029E00004000020140600200E0600200F06002020
:1029F00010B5040000F004FE2388C01A80B231280C
:102A0000F8D910BD0B7B70B503734B7B0400437387
:102A10008B7B0D008373CB7B0322C3730B7C03740E
:102A20004B7C43740B6812310360123005F02EFAB0
:102A30001523EB56200063756B686360A360AB6978
:102A4000A36170BDF0B585B002910A9903938B68BC
:102A5000019001338B60CB680133CB600B6901338C
:102A60000B6100269446039B350034003000019A28
:102A7000029F664674784D782D06240601D16D407C
:102A8000C046641900D3E44300D32406CE68240E64
:102A900074434D780E79751B4D7020046246009684
:102AA0009446009E019A029F9760C046C046032646
:102AB000013EFDD1400000D25760C046C046C0462E
:102AC0000826013EFDD15760C046C0460526013E9E
:102AD000FDD19760C046C0460326013EFDD14000AF
:102AE00000D25760C04666463478C046C0460726C6
:102AF000013EFDD15760C046C0460526013EFDD1CE
:102B00009760C046C0460326013EFDD1400000D27A
:102B10005760C0460D782D06240601D16D40C04691
:102B2000C0460626013EFDD15760C046C046052678
:102B3000013EFDD19760C046C0460326013EFDD14F
:102B4000400000D25760C046641900D3E44300D36C
:102B500024060726013EFDD15760C046C046052623
:102B6000013EFDD19760C046C0460326013EFDD11F
:102B7000400000D25760C0468E68240E7443C046A1
:102B80000726013EFDD15760C046C0460526013EDE
:102B9000FDD19760C046C0460326013EFDD14000EE
:102BA00000D25760C0460D78CE78751B0D70C046B8
:102BB0000626013EFDD15760C046C0460526013EAF
:102BC000FDD19760C046C0460326013EFDD14000BE
:102BD00000D25760C046C046C0460826013EFDD11F
:102BE0005760C046C0460526013EFDD19760C046ED
:102BF000C0460326013EFDD1400000D25760C046CA
:102C00002004C0460826013EFDD15760C046C0469C
:102C10000526013EFDD19760C046C0460326013E11
:102C2000FDD1400000D25760C046C046C0460826CD
:102C3000013EFDD15760C046C0460526013EFDD18C
:102C40009760C046C0460326013EFDD1400000D239
:102C50005760C0466646B478C046C0460726013E67
:102C6000FDD15760C046C0460526013EFDD19760A4
:102C7000C046C0460326013EFDD1400000D2576049
:102C8000C0468D782D06240601D16D40C046C04651
:102C90000626013EFDD15760C046C0460526013ECE
:102CA000FDD19760C046C0460326013EFDD14000DD
:102CB00000D25760C046641900D3E44300D3240611
:102CC0000726013EFDD15760C046C0460526013E9D
:102CD000FDD19760C046C0460326013EFDD14000AD
:102CE00000D25760C0460E69240E7443C0460726C2
:102CF000013EFDD15760C046C0460526013EFDD1CC
:102D00009760C046C0460326013EFDD1400000D278
:102D10005760C0468D784E79751B8D70C04606266B
:102D2000013EFDD15760C046C0460526013EFDD19B
:102D30009760C046C0460326013EFDD1400000D248
:102D40005760C0468E79B444C046C0460726013E4F
:102D5000FDD15760C046C0460526013EFDD19760B3
:102D6000C046C0460326013EFDD1400000D2576058
:102D7000C0462004C0460826013EFDD15760C0462B
:102D8000C0460526013EFDD19760C046C0460326D9
:102D9000013EFDD1400000D25760C046C046C0464B
:102DA0000826013EFDD15760C046C0460526013EBB
:102DB000FDD19760C046C0460326013EFDD14000CC
:102DC00000D25760C04666467478C046C0460726A3
:102DD000013EFDD15760C046C0460526013EFDD1EB
:102DE0009760C046C0460326013EFDD1400000D298
:102DF0005760C0464D782D06240601D16D40C0466F
:102E0000C0460626013EFDD15760C046C046052695
:102E1000013EFDD19760C046C0460326013EFDD16C
:102E2000400000D25760C046641900D3E44300D389
:102E300024060726013EFDD15760C046C046052640
:102E4000013EFDD19760C046C0460326013EFDD13C
:102E5000400000D25760C046CE68240E7443C0467E
:102E60000726013EFDD15760C046C0460526013EFB
:102E7000FDD19760C046C0460326013EFDD140000B
:102E800000D25760C0464D780E79751B4D70C04614
:102E90000626013EFDD15760C046C0460526013ECC
:102EA000FDD19760C046C0460326013EFDD14000DB
:102EB00000D25760C046C046C0460826013EFDD13C
:102EC0005760C046C0460526013EFDD19760C0460A
:102ED000C0460326013EFDD1400000D25760C046E7
:102EE0002004C0460826013EFDD15760C046C046BA
:102EF000C0460326013EFDD10D4F00966246BE68D6
:102F000062B6013B72B6BF68BC46BE4201D2094FF1
:102F1000F6196746F61B87273F01BE4205D8002BEE
:102F200000D0BDE5039805B0F0BD0020FBE7C0462A
:102F300010E000E080BB000000B58021027B89B07A
:102F400003AB1A70427B49005A70827B9A70827C74
:102F50000592C27C0692027D0792C27BDA70027CE7
:102F60001A71427C5A71427D9A7100930CC80248D2
:102F7000FFF768FD09B000BD9000006030B50400A7
:102F800089B020300D00FFF733FD72B6290001A88B
:102F9000FFF738FD01A8FFF7CFFF00280CD162B67C
:102FA000C8239B00013BFDD172B6290001A8FFF7A1
:102FB00029FD01A8FFF7C0FF62B600F021FB2084C5
:102FC00009B030BD00B5027B89B003AB1A70427BFB
:102FD00080215A70827B9A70827C0592C27C069214
:102FE000027D0792C27BDA70027C1A71427C5A71B0
:102FF000427D9A7100930CC80248FFF723FD09B087
:1030000000BDC0461000006030B5040089B020301B
:103010000D00FFF7EDFC72B6290001A8FFF7F2FCE6
:1030200001A8FFF7CFFF00280CD162B6C8239B0090
:10303000013BFDD172B6290001A8FFF7E3FC01A80E
:10304000FFF7C0FF62B600F0DBFA208409B030BDA4
:1030500000B58021027B89B003AB1A70427B8900E6
:103060005A70827B9A70827C0592C27C0692027DA5
:103070000792C27BDA70027C1A71427C5A71427DDF
:103080009A7100930CC80248FFF7DCFC09B000BD40
:103090009000006030B5040089B020300D00FFF7CB
:1030A000A7FC72B6290001A8FFF7ACFC01A8FFF746
:1030B000CFFF00280CD162B6C8239B00013BFDD195
:1030C00072B6290001A8FFF79DFC01A8FFF7C0FF19
:1030D00062B600F095FA208409B030BD0721F8B53A
:1030E0000124194A137801330B401C4013708C40A3
:1030F0009A0701D5402214430422134201D0202311
:103100001C43050080270F3006001034E4B20C3554
:103110007F00A979002904D0380002F0FBFB0130C0
:10312000C1B24B1C63431B12E970DAB2002B08D109
:103130002B70002901D00139E9700135AE42E8D188
:10314000F8BD013A2A70F4E79C02002070B58AB0FD
:103150000193867C05001E2003AC03916260A2608F
:1031600001A90322684404F091FE012E0DD1200034
:10317000FFF7B4FF032363750023A3612B682100CD
:103180009B69280098470AB070BD002306932382EC
:10319000F0E770B58AB00193867C05001E2003AC71
:1031A00003916260A26001A90322684404F06EFEEC
:1031B000012E0CD12000FFF791FF0023A36163755E
:1031C0002B6821009B69280098470AB070BD002336
:1031D00006932382F1E700000123064810B503702F
:1031E000054B064A436000230549836002F0F2FA6A
:1031F00010BDC0461803002000200042000000203F
:103200002321000037B500236C462380A370984229
:103210000FD0CD5C002D09D0D45C002C06D0013538
:1032200001346C436D464443240CEC540133032BAE
:10323000EFD16B461A8899781000FF23120A1840C4
:1032400012020B401B04104318433EBDF8B5002783
:1032500004000E001500BB4201DD17001D002368AD
:1032600020009B68984703237B43F6182368666019
:1032700065615B6920009847011E08D0054802F08F
:1032800049FB054D6B68834200D203006B60200050
:10329000F8BDC04640420F001406002070B50D4C2A
:1032A000060023685A1C22608B4212DB00F0A2F950
:1032B000094D2B68C11A00D10131FA202368800022
:1032C000584302F09DFA00237080236000F092F9C9
:1032D000286070BD3006002034060020F0B50500DF
:1032E0000E0087B06B68244C002B06D000F088F9E4
:1032F0002368C01A6B689842F4D300F081F9EB6838
:103300002060002B03D03000A968984706001B4BB3
:103310001C68002C2AD0A37C01936B88632B01D8F6
:103320000023A3742200210023680F325B680C3154
:103330000293636830000393FFF764FF05AB020458
:103340001870120E00025A70000E98701B88676980
:1033500004AA90701380049B3A0020000399029FF6
:10336000B8476B461B79A374A468D2E719212800DB
:10337000FFF794FF07B0F0BD2406002028060020C8
:10338000FF22044B1A7000225A80DA60013A9A60D8
:103390007047C046140600205622F0B5402720266C
:1033A000037844788578D800C0B242431F401E405D
:1033B0005BB2120A002B64DB002F4FD1002E05D127
:1033C000D343DBB210001A00330003E05532D0B211
:1033D000AB223B00FF2C20D0002C00D176E0002A4D
:1033E00003D0661C72431212D2B2002803D0661CAE
:1033F00070430012C0B2002B03D0661C73431B1233
:10340000DBB2E443E4B2661C74432412E4B2121942
:1034100000191B19D2B2C0B2DBB2FF2D1AD02C009A
:103420006C436E1EB54124122D19EDB2002D51D002
:10343000002A03D06C1C62431212D2B2002803D0BF
:103440006C1C60430012C0B2002B03D001356B43EB
:103450001B12DBB20A7048708B70F0BD002E0AD1CF
:10346000AB23552743437F421B12FF1A563AFFB244
:10347000D0B23A00A8E70026D0431300C0B2320011
:10348000A8E7002F0FD1002E09D1AB2343435520CD
:103490001B0A4042C01AC0B25533DBB2EFE7D34338
:1034A0003800DBB296E7002E09D110005530C0B2CB
:1034B00055235B429B1ADBB2020030008AE71600FC
:1034C000563EF6B2002055239B1AE6E7FF2318006C
:1034D0001A00A2E72B0028002A00BBE710B502481B
:1034E00000F073FE10BDC0463806002013B5124927
:1034F000124800F0CDFB1249124800F0C9FB1249F6
:10350000124800F0C5FB1249124800F0C1FB124CF2
:103510001249200000F0BCFB1149124800F0B8FB32
:1035200000230193013300930722053321000E4845
:1035300000F0BAFD13BDC046000800427408002028
:10354000000C004278080020001000427C08002097
:103550000014004280080020840800200018004267
:10356000001C00428808002038060020FEE700000A
:10357000034B10B51B68002B00D0984710BDC04608
:103580008C08002070B50F490F4CA14204D100F007
:103590008DF800F017FFFEE70C4D00238D42F6D0AA
:1035A000CA18E818A24205D3094B8242EFD0094954
:1035B000002204E0006804331060F1E704C38B428A
:1035C000FCD3E4E7000000208002002094C2000049
:1035D00080020020880E002010B500F064F800285A
:1035E00001D100F055F810BD014B18607047C0467E
:1035F0008C080020014B18687047C04690080020D6
:10360000F7B51348012284461249134C8E6863684B
:1036100005689B0E1340019288686268019F920EB4
:103620003A4067463F6893420ED1BD420CD1864274
:103630000AD35B19FA254868AD00861B07486B431F
:103640007043000DC018FEBD3D0013000600E3E707
:103650009008002010E000E000ED00E0555500006B
:1036600070B5041E10D0FFF7CBFF050000F01AF86C
:10367000FFF7C6FF054B401B9842F7D9FA23013CE0
:103680009B00ED18002CF3D170BDC046E70300008D
:1036900010B5034A13680133136000F0BBFA10BD84
:1036A0009008002070470020704700001E2270B56F
:1036B00046484749436893431C3A134343600823F1
:1036C0008C6923438B61434C434B9C829C8A1443FB
:1036D0009C82DC681442FCD00124404A14701578A6
:1036E000254203D055786DB2002DF8DB012494609B
:1036F000547864B2002CFBDB394C5460547864B2CB
:10370000002CFBDB8224E4015480547864B2002C4A
:10371000FBDB02249C840E34DD682542FCD0314C56
:10372000DC621024DD682542FCD09D8C2E4C2C439D
:103730009C841024DD682542FCD002249D8C8026C8
:103740002C439C844024DD683542FCD0DD68254252
:10375000F9D01024DD682542FCD000249460547810
:1037600064B2002CFBDB214C5460547864B2002C12
:10377000FBDB1C6A1E4D2C4080251C621C6AAC437E
:103780001C62032393601B4B536053785BB2002B86
:10379000FBDB0023FF240B72174A4B728B72CB7238
:1037A000164B1A60164B174A1B6811689A065B0184
:1037B000C90E2340520F12020B431343124A1385C2
:1037C000802342681343436070BDC04600400041FF
:1037D000000400400C06000000080040000C0040FF
:1037E00001050100B905FF7D040A00000007030080
:1037F000FFFCFFFF03060100006CDC020800002054
:10380000246080002060800000400042FA212D4B9F
:1038100010B51868890001F0F3FF2B4B013898426E
:103820004FD82A492A4A4860C020136A00061B0262
:103830001B0A0343136200238B6007330B60802154
:10384000136A09061B021B0A0B431362FC22214B5D
:10385000196A0A431A62FF22196A12020A431A629B
:10386000A022196AD2020A431A621B4B1C005A7822
:1038700052B2002AFBDB194A5A80194B1A00597EB2
:10388000C9090129FBD0C821890099800521D97077
:10389000537EDB09012BFBD0C02300205B011361A9
:1038A000907000F023F863785BB2002BFBDB0D4BCC
:1038B0000D4A6380D379DB09012BFBD04123537080
:1038C00010BDFEE708000020FFFFFF0010E000E051
:1038D00000ED00E000040040000C00401E4000002D
:1038E0000040004221400000004800421F4900B54E
:1038F0000B004A7ED209012AFBD001380A282FD8B2
:1039000001F074FF1B2E2E2E2E2E062E2E241100BB
:103910001A6917490A400F211A615A788A4311001F
:1039200001220A4310E01A6911490A400F211A6165
:103930005A788A4311000322F3E71A690C490A40B6
:103940000F211A615A788A435A7000BD1A690849D2
:103950000A400F211A615A788A4311000222E0E7D7
:10396000F022196912050A43F3E7C04600400042FD
:10397000FFFFFFF010B50121040000F0DBF8002C80
:103980000DD1284B1900DA79D209012AFBD0022087
:103990001A7882431A70CB79DB09012BFBD02249BC
:1039A0000B004A7ED209012AFBD0182044431F484D
:1039B0000A6900191F24007CA243204002430A61C7
:1039C0005A7ED209012AFBD0022219780A431A70C2
:1039D0005A7ED209012AFBD00222197B0A431A73AC
:1039E00001221A765A7ED209012AFBD00222197BC3
:1039F0000A431A731A7ED207FCD5588B80B25A7EBE
:103A0000D209012AFBD002211A788A431A705A7E01
:103A1000D209012AFBD0064B1A68064B196800F040
:103A20007FF810BD0048004200400042ACBB0000DF
:103A3000100000200C000020182310B50824434378
:103A4000134AD0180457013412D001249A564368FF
:103A50009C4003290CD808000E49D2015218D318F3
:103A6000403301F0C3FE0210060B022119705460AE
:103A700010BD0621197054609461F9E70621197090
:103A800054605461F4E7022119709460F0E7C04675
:103A9000ACBB0000004400411823F0B50824584393
:103AA000114A13181C5701341BD0012635005F68DA
:103AB0008356BD400D4ADB019A18906805420BD130
:103AC0000C00601E8441D219403210783440033615
:103AD000A400B04320431070044A9B18002901D170
:103AE0005D61F0BD9D61FCE7ACBB0000004400419E
:103AF000182310B50824434307490020CA18145757
:103B0000013408D05B560549DB015B18186A53681D
:103B1000D8400123184010BDACBB00000044004158
:103B2000914202D002D98A1AD0407047521A90406E
:103B3000FBE700001822424370B52D4E0300B21877
:103B4000127A52B2140001320ED0481C00240C2804
:103B50000AD801F04BFE071F1F1F1F1F1F1F1F0B3F
:103B60000B0B0B0001246442200070BD092905D114
:103B700000211800FFF760FF0024F5E70A2901D1B2
:103B80000839F6E700240B29EED10A391800FFF7AF
:103B900053FFE9E7182201205343F218F356556802
:103BA000144ADB016C089B18C9B228401C19002874
:103BB0000ED00F20303422780901024011434122F7
:103BC000C9B25B192170403319780A431A70D3E7E0
:103BD00022000F26303214785B19B4432143117050
:103BE00041224033197804000A431A70BCE7C046EA
:103BF000ACBB000000440041014B18607047C04658
:103C0000140000200122024B52421A607047C04645
:103C100014000020164A10B51368591C26D0013B29
:103C20001360002B22D172B6124B134A0433934215
:103C300013D9124A01211000147D0C42FCD020211E
:103C4000148BFF319B085B0021431183D3610C4B24
:103C500013800123027D1A42FCD0BFF34F8F094B22
:103C6000094ADA60BFF34F8FC046FDE710BDC0467A
:103C7000140000200020000003020000004000416A
:103C800002A5FFFF00ED00E00400FA0510007047F8
:103C9000016070479446F0B59E1E721E96416246C2
:103CA000056892072F6836063A4332432A60072593
:103CB00005AC24780068A40129402143426800240F
:103CC000022B00D05C03114321434160F0BD30B5AD
:103CD000C0250368AD031C6812052A402243C02496
:103CE0000904A40221401143196003685A6814436F
:103CF0005C6030BD0123026811680B4313600368E8
:103D00001A68D207FCD4DA69D207F9D470470223C3
:103D1000026811680B4313600268D3699B07FCD4E7
:103D2000704703681A7ED20702D41A7E9207FCD528
:103D30007047002203685A8370470368187E400763
:103D4000C00F70470368187EC0097047802302685F
:103D50005B42117E0B43137670470368588B8007D4
:103D6000C00F704702230268518B0B435383704787
:103D70000368187EC007C00F70470368188DC0B273
:103D8000704703681A7ED207FCD589B201201985D5
:103D90007047012203689A757047012203681A75FB
:103DA000704700000368104A934213D00F4A9342B1
:103DB00012D00F4A934211D00E4A934210D00E4AAD
:103DC00093420FD001200D4A4042934201D1063068
:103DD00040B270470020FBE70120F9E70220F7E737
:103DE0000320F5E70420F3E700080042000C00423E
:103DF000001000420014004200180042001C004263
:103E0000F8B5FFF7CFFF00282CDBC3001C48FF22CA
:103E1000C01805230479C35603201840C00082400F
:103E2000C021D2438140002B1DDB1F2501201D40F6
:103E3000C026A840134D7600A851C0269B089B00C1
:103E40005B19B6009F593A401143995128603F23AE
:103E500023408024E4011C430B4B5C805A7852B20F
:103E6000002AFBDBF8BD0F200340083B07489B08F6
:103E70009B001B18D86902401143D961E7E7C0468F
:103E800044BD000000E100E0000C004000ED00E057
:103E9000F8B504000F0016001D00FFF7B1FF200069
:103EA000FFF728FF1C21BB000B4071072268090C9B
:103EB0000B431360842322689375012F1AD11021BC
:103EC000012E00D008390C4B69431868C00001F07E
:103ED00097FC0722216802408B895203DB04DB0C2C
:103EE00013438B81226803049089DB0C400B400351
:103EF00018439081F8BDC04608000020012070479B
:103F000010B50368014A1B6A984710BD13040000EE
:103F10000300FC33D9699A69914203D0DB69C01868
:103F2000007D704701204042FBE710B504000069A6
:103F3000FFF7E0FE22000023FC329361D36186226A
:103F40009200A4186360A36010BDF02001403039D6
:103F5000484248417047F0231B0119408023062046
:103F60009B0099420AD00133FF330130994205D0BA
:103F7000802302385B00994200D0002070470F2058
:103F800001400020012903D00239481E8141481C0C
:103F9000704700008923F0B5182685B002919B0078
:103FA0000400C05C330008214343324D1700EB1876
:103FB0005956FFF7BFFD304B0821E05C3300434307
:103FC000EB185956FFF7B6FD2C4BE25C0393022A1F
:103FD00009D11133E05CFF2805D008214643AE1912
:103FE0007156FFF7A7FD8A26B600A05DFF2819D0FD
:103FF0000121FFF721FD1822A35D21495A43AB5649
:10400000AD18DB0158188B21890060501D49012231
:104010005B188C218900635069688A408D21890072
:1040200062501A600122029B11002069FFF730FFE5
:1040300039002000FFF78FFF390005002000FFF74F
:104040009EFF390006002000FFF77FFF330000903D
:10405000290020690122FFF71DFE0B4B2069E25C5D
:10406000039BE15CFFF733FE2069FFF750FE05B0CC
:10407000F0BDC046ACBB00002502000027020000D6
:10408000184400411444004126020000802210B56B
:1040900004005200002103F002FF23000022FC3341
:1040A0005A6020009A6010BDF7B51D0008AB1B7860
:1040B0000400009309AB1B781600019300234360B2
:1040C000FA239B008360114B0F0008330360143008
:1040D000FFF7DCFF20001D30FF30FFF7D7FF8923FB
:1040E0006A469B002761E654094B1278E554094B58
:1040F0002000E2546A46084B1279E2548A22293B96
:10410000FF3B9200A3541032A354FEBD74BD0000C7
:104110002502000026020000270200000300FC33F5
:1041200059689A68914204DB5A689868801AFF308F
:10413000704798685B68C01A0138F9E710B51D3000
:10414000FF30FFF7EBFF10BD030070B5FC33D969FA
:104150009A69040091421AD0DA698218157DDA69E9
:104160000132D2B2DA618A239B00E35CFF2B0CD0D0
:1041700020001430FFF7D2FF0A2806DD8C238D22A1
:104180009B009200E358A2581A60280070BD0125D8
:104190006D42E8E70300FC3358689B68C01A01D5FC
:1041A0000130FF30704710B5040020001D30FF3093
:1041B000FFF7F0FF0028F8D12069FFF7B2FD10BD2E
:1041C00010B51430FFF7E6FF10BD10B5040000690C
:1041D000FFF7C3FD002805D02069FFF7CEFD206959
:1041E000FFF7C0FD2069FFF7A8FD002820D0206957
:1041F000FFF7C3FD2200FC329369D1690133DBB2C2
:104200008B4203D091696118087593618A239B00E2
:10421000E35CFF2B0CD020001430FFF77FFF092850
:1042200006DC8B238D229B009200E358A2581A6073
:104230002069FFF79DFD00281AD020001D30FF30B7
:10424000FFF7A8FF002822D086239B00E318996877
:104250005A68914218D08E219A684900A218515C80
:104260009A680132D2B29A60C9B22069FFF789FD1B
:104270002069FFF767FD002805D02069FFF766FD7C
:104280002069FFF756FD10BD01214942ECE7206986
:10429000FFF783FDECE7000070B5040000690D0036
:1042A000FFF766FD00283ED1FF2686239B00E3181A
:1042B0005A689968013232408A4223D1EFF3108361
:1042C000DB070DD41E4B5B68DB05DB0DEDD0103B2F
:1042D0005BB2002B0DDB9B08C0331A4A9B009B5836
:1042E0002069FFF745FD0028DFD02000FFF76DFFB4
:1042F000DBE70F221340083B9B08134A9B009B18E7
:104300001B68EDE75A68013216409A68964205D05C
:104310008E215A684900A21855545E602069FFF743
:1043200038FD012070BD20001D30FF30FFF732FF47
:104330000028B9D129002069FFF723FDF1E7C04625
:1043400000ED00E000E100E01CED00E010B5002809
:1043500001D004F0B1FC10BD10B5041E05D004F06E
:10436000CFFC210001F0BCFB0C00200010BD10B5FB
:104370000400884203DA081AFFF7EEFF2418200031
:1043800010BD10B51C00431A0298511A001B584367
:1043900001F0C0FA001910BDFEE7704710B5FEF736
:1043A0002BF9FEF781F8FFF77DF9034B002BF8D0CE
:1043B00000E000BFF5E7C0460000000010B5FFF7C1
:1043C000EDFF000010B5FFF721FA03F027FDFFF71E
:1043D000E4FF0120FFF744F9054C200000F0CCFA7F
:1043E000200000F04FFBFFF7E9FF002010BDC046A2
:1043F00094080020F7B506000D000C008B180193FF
:10440000019B671B9C4207D0336821781B683000F2
:10441000984701340028F3D13800FEBD704770473B
:1044200070B50F26CB1D013902003240D5B22C00E9
:1044300000093034092A00DD07341C70013B8B422F
:10444000F2D170BDA02110B50400490001F0C9F9F6
:10445000200010BDF8B5032908D1304B8000C058AA
:10446000002802D003689B689847F8BD822919D1BB
:10447000C3B22B4D5A01AA1891692A4C80010C40F5
:10448000C0218905214391612749083340187021D3
:10449000506128685B011A5C8A43110030220A438C
:1044A0001A54E2E70029E0D1C026C1B21C4C4B01EE
:1044B000E3189A681B4DB6052A4032439A601B4A9E
:1044C000800182185A600A000727246808325201C6
:1044D000115DB9430F000121394311559F691249FC
:1044E0003D4040182E439E6158617020115D81430C
:1044F000080010210143115599680D48A218084081
:1045000080214903014399609968890B8903996067
:10451000402311790B431371A7E7C0469808002088
:104520004C0D0020FFFFFF8FC0080020800A0020F4
:10453000FF3F00F0EFF3108303600123436072B686
:1045400070470368002B02D162B6BFF36F8F7047CC
:10455000F7B50500FC35EB690600002B18D196274E
:104560007F00C45D6846FFF7E5FF019BE4B2013BB5
:1045700002D3F45DE4B2FAE768460193FFF7E1FF86
:10458000002C01D10020FEBDE86AAB6AC01AFAE730
:104590006846FFF7CFFF9E220024019B5200013B9B
:1045A00002D3B45CE4B2FAE768460193FFF7C9FFAF
:1045B000002CE7D0E86BAB6BE8E7000030B544684F
:1045C000FC3043698069DBB25A01A2189168094D39
:1045D0008004294000090143916091680833890BE8
:1045E0008903916022685B01D318402219790A433C
:1045F0001A7130BDFF3F00F0F7B50500FF21FC3513
:104600006A6943680A401B68083252019A18D379D4
:104610000400DB0754D50126D6716B6962680B4034
:104620005B01D318286A9A689204920C002822D160
:10463000EA62EA6A002A40D06A6B2E6268465A60D3
:10464000FFF778FF9E273E21019B7F00013BFF3152
:104650005A1C2ED096225200A654E25D581ED2B2A9
:10466000002A05D0665468460193FFF76AFFF7BD3C
:1046700062540300ECE7EA63EA6B002A1DD00022D3
:104680002A626A6A68465A60FFF754FF96273E21FD
:10469000019B7F00013BFF315A1C0AD09E22520031
:1046A000A654E25D581ED2B2002ADBD16254030048
:1046B000F2E768460193FFF744FF2000FFF77EFF13
:1046C00063681A686B69DBB208335B01D3187F2219
:1046D000DA71CCE7F7B5070068463C00FFF72AFF20
:1046E0000026FF22019BFC34013B0DD3E0682169C9
:1046F000884204DBE6682069961B3618F4E72669D1
:10470000E168761A013EEFE768460193FFF719FF6B
:10471000E3696846002B52D1FFF70CFF9621019BFD
:104720004900013B5A1C0CD07D5C5A1EEDB2002D95
:1047300005D168460193FFF704FF2800FEBD130072
:10474000F0E7684601930025FFF7FBFEFF21A36A0F
:10475000B54214D0E26A9A4211D95A1CA262626A26
:10476000D3181878E36822690133C0B20B40934232
:1047700003D0E268BA181072E3600135E7E7E26A35
:104780009A42DAD10023A3620133E361684696249A
:10479000FFF7D0FE64003E220021019BFF32013B67
:1047A000581CC6D03955B85C5E1E002805D0B954D7
:1047B00038000193FFF702FFEDE73300F0E7FFF762
:1047C000B9FE9E21019B4900013B5A1C06D07D5C2D
:1047D0005A1EEDB2002DACD01300F6E768460193E7
:1047E0000025FFF7AEFEFF21A36BB54202D0E26BBE
:1047F0009A421DD8E26B9A429FD100236846A36378
:10480000E3619E24FFF796FE64003E220021019B97
:10481000FF32013B581C00D18BE73955B85C5E1E56
:10482000002817D0B95438000193FFF7C7FEECE712
:104830005A1CA263626BD3181878E36822690133AB
:10484000C0B20B40934203D0E268BA181072E36022
:104850000135C9E73300DDE710B50400FFF73AFF83
:104860002300FC331969DA68914203D01B69E4180C
:10487000207A10BD01204042FBE710B50400FC3453
:10488000FFF728FFE0682369C01A01D50130FF3027
:1048900010BDF0B585B0019200910500FFF71AFF39
:1048A00002A8FFF747FE01200024FF26039B404299
:1048B0005A1E531C1FD02B00FC3301998C4218D276
:1048C000D9681F69C91B01D50131FF31002910D0FA
:1048D0001969DF688C460100BC4506D019691F695B
:1048E000691801373740097A1F61009F3955013433
:1048F000E3E7013ADDE702A80392FFF722FE20007A
:1049000005B0F0BD37B56B46DC1D00230D0020005F
:10491000237000F061FE2B681818286000F000FF7B
:10492000210000F0B9FE2B681818286020783EBDE1
:1049300002220B0010B593430C00012B0BD10D4B41
:1049400008341B6864011C19802321795B420B43E6
:104950002371E27110BD00F0E3FE210000F0D0FEF3
:104960000028F7D0034B08341B6864011C197F230F
:10497000E371EFE74C0D002070B50024364B0121A8
:1049800005000B201C70FFF757F801210B20FFF7E3
:1049900083F8324B01210C201C70FFF74DF80121E8
:1049A0000C20FFF779F820232D4A0F20D1690B4303
:1049B000D36101222B490B7813430B702A4B1978D2
:1049C0008143197006211C782143197027490C78FE
:1049D00022430A701A7802401A70602219780A433A
:1049E0001A70234B234A5A805A78D209FCD12248A4
:1049F000FEF7FAFD214C7F26200000F0A3FE2000E8
:104A000000F0B8FE0C2008232168CA7882431343C3
:104A1000CB7003212268D3788B4301390B43D370C9
:104A200022681378334013700423226816783343C6
:104A300013702268C1241389A40083431048138192
:104A400003591B021B0A0351802303601378194387
:104A5000012311702B7070BDB5080020B408002030
:104A600000040040584400413C4400415944004186
:104A7000000C004006400000B15400004C0D002026
:104A800000E100E00078002810D00121084B1B68ED
:104A90001A898A431A810822198B0A431A8304222D
:104AA000198B0A431A830022024B1A607047C046D2
:104AB0004C0D0020440D002010B50F4A93699B0B4C
:104AC0009B03936113680222FF331A729879823A2A
:104AD00002439A711A7A9207FCD57F24074A214033
:104AE000937A0800A3431900802301439172917ABD
:104AF0005B420B43937210BD4C0D002000500041EF
:104B000010B50B790C00002B0CD1080000F072FDE1
:104B1000002801D0012010BD094A93699B0B9B031B
:104B20009361F7E700F0FCFD210000F0D9FD0028BB
:104B3000F0D1034A93699B0B9B039361EBE7C0465B
:104B40004C0D0020F8B50D00832A19D1CBB2434C8F
:104B50005A01A21891694248AD010840C021890557
:104B6000014391613F4920686D18702108335561F8
:104B70005B011A5C8A43110040220A431A54F8BDB3
:104B8000022A65D1384B8A00D058002802D0036829
:104B90009B699847A020400000F09AFC80270600FF
:104BA000324B7F0003602D4B002143603A000830F8
:104BB00003F075F9340096220023FC345200E360C0
:104BC000A36223616561E361A7612362E362B35479
:104BD0001032A363E363B3543E223800FF32B35470
:104BE00003F040F96062380003F03CF92B00606389
:104BF000FF201A4903405A018A189168184F083358
:104C00000F40C0218905394307279160134A5B0192
:104C10001168AD005A5CBA43170003223A435A5454
:104C200061697368014049015918636A4B60736890
:104C300062691B68024052019B1801221B18997A75
:104C400030000A439A72FFF7B9FC074BEE5096E723
:104C500011002800FFF7FEFB91E7C0464C0D002035
:104C6000FFFFFF8FC008002098080020B0BD0000A3
:104C700070B505000124064BA200D258002A06D0C8
:104C8000210028000134FFF75DFF0A2CF3D170BD2D
:104C9000180000200B4BCAB20B488901C9185301F8
:104CA000C318596199690832890B890399610368AE
:104CB00052019A180223D3715179823B0B435371ED
:104CC0007047C046C00800204C0D0020084B8A00E9
:104CD000D05810B5002803D00368DB68984710BD92
:104CE000C9B2044B4901591888688004800CF6E762
:104CF000980800204C0D002010B50C00FFF7E6FFCF
:104D000000280CD0064BE4B21B68083464011C195F
:104D1000802362795B42134363710223E37110BD08
:104D20004C0D002070B5CBB2124A13485C018901CA
:104D30008918021951609168104D08330D40802187
:104D400089022943402591609168890B890391600C
:104D500001685A018A1816793543157195796D06DF
:104D6000FCD55B01C918CB79DB07FCD5001980683D
:104D7000C0B270BD800A00204C0D0020FF3F00F043
:104D800070B5140040220B4B0D001B68FF3359799E
:104D90000A435A710021FFF7C5FFA04200D9200045
:104DA00000230549A34203D0CA5CEA540133F9E762
:104DB00070BDC0464C0D0020800A002010B5C9B25D
:104DC0000B484901421893689B049B0C3F2B0BD95D
:104DD0009468403B9B04A40B9B0CA4032343936067
:104DE00041188868C0B210BD93689B0B9B03F6E71F
:104DF0004C0D0020F0B51C002F4B85B01B68060041
:104E00000D000192002B54D02C4F3978C9B20029E3
:104E100002D10C20FEF740FE64233B70284BAA0011
:104E2000D058002808D0036822005B680199984791
:104E30000400200005B0F0BD29003000FFF746FF58
:104E4000844204D929003000FFF740FF0400290004
:104E50003000FFF7B3FF0121EBB21A4F03935B0160
:104E60000293029A3B6801989B18FF335A7A0A43CF
:104E70005A72154BA901C918220003F007F8002C3B
:104E8000D7D029003000FFF721FF0028D1D14021E1
:104E9000039B3A6808335B01D318187901431971F1
:104EA0000121D971029BD318FF339A7A0A439A726F
:104EB000BFE701246442BCE7440D0020B408002091
:104EC000980800204C0D0020800A002013B56B4686
:104ED000DC1D22000123FFF78DFF012801D120787E
:104EE00016BD01204042FBE7F0B51E003A4B85B0ED
:104EF0001B680F000192002B3FD08023DB019E42F4
:104F00003BD8364C2178C9B2002902D10B20FEF7DC
:104F1000C3FD642300252370314BBA01D3180293DB
:104F2000002E2CD02F4B1B680393FF233B401C000B
:104F300000930834039B64011C19A379DB0921D079
:104F4000294B2A49186800F05BFC294B172158436C
:104F500000F056FC274BE279920713D4DA5D002A61
:104F600001D10138F7D20122DA55009B5A011D4BBD
:104F70009B189A69920B92039A6101256D42280051
:104F800005B0F0BD00221B4B3400DA55402E00D98D
:104F9000402422000199029802F078FF009BA104AE
:104FA0005A01104B890C9B18029A2D195A619A6963
:104FB000361B920B92030A439A61009B039A0833B3
:104FC0005B01D3180222DA715979823A0A435A7185
:104FD000019B1B190193A3E7440D0020B508002095
:104FE000C00800204C0D00200800002040420F00A7
:104FF00070110100B708002070B50D001C000D4BAA
:10500000AE01F61811003000220002F03FFFEDB2B1
:1050100009496D014D196E61AB69084A20001340C2
:10502000AB61AB69A2049B0B920C9B031343AB6176
:1050300070BDC046C00800204C0D0020FF3F00F0AE
:10504000F7B5104B01901B780F001500002B0CD109
:105050000D4B16001C78002C09D00C4E0C483488DF
:105060002018641902F012FF34802800FEBD002EC3
:10507000FBD03A19330000210198FFF7BDFF241837
:10508000361AF4E7400C0020410D0020420D0020AC
:10509000410C0020F8B5002000AF0E001500012AD9
:1050A00027D9D31D6A46DB08DB00D31A9D460800CA
:1050B00003F08EFE6C4603230222002101304000E3
:1050C00020706370AA420DD2307800280AD0531C99
:1050D000DBB20136A0549D4203D00232E154D2B279
:1050E000F0E72A0021000448FFF7AAFF431E984179
:1050F000C0B2BD46F8BDC04694080020F0B50024FB
:10510000012685B0184B0F0069461E7005000094FB
:10511000FFF7F8FB154B01A90B806A3BFF3BCB71F6
:105120006E3B0B72009B8C7109334B800E4B4E71A2
:1051300008711C703A00092F0FD00D4F09223E70E4
:105140000C4E280000943480FFF77AFF694628004F
:10515000FFF7D8FB328808493C702800FFF770FF42
:10516000012005B0F0BDC046400C0020090200003F
:10517000410D0020420D0020410C0020F0B5CF78F9
:1051800093B005000E00022F09D1C9882D48FFF702
:10519000B5FF441EA041C4B2200013B0F0BD00F022
:1051A000BFFA310000F08CFA002803D0C417241A8B
:1051B000E40FF1E7012F0FD1F288082A0AD0224923
:1051C000112A13D8D2B2002A10D02800FFF738FFD6
:1051D0000124E1E71D49F5E70400032FDCD1B37892
:1051E000002B05D1F2881A49032AEBD90A78ECE79B
:1051F000022B06D1B27917492800FFF74BFF0400B4
:10520000CAE7012B02D1B2791349F5E7032BC3D1C9
:10521000124B01A91868FFF703F9114B03A918688D
:10522000FFF7FEF80F4B05A91868FFF7F9F80E4BCA
:1052300007A91868FFF7F4F86B460533DC77B279F5
:1052400001A9D9E794080020E8BD0000FABD0000DC
:10525000DEBD0000D0BD0000E2BD00000CA080005B
:1052600040A0800044A0800048A0800037B5040022
:1052700048780D000B2810D800F0B8FA061B0F2B49
:105280000F40456D494C6669097801AA002906D18D
:10529000022311802000FFF7AFFE01203EBD002356
:1052A00013802E4B1B78012B00D113700223002199
:1052B000F0E78A780023012A03D101AA1380284B42
:1052C000F0E7264A1370274A93699B0B9B0393616F
:1052D000E3E78D78012D06D10021214B01AA1D7035
:1052E00011702B00D6E70120002DD7D11B4B1D4A92
:1052F000187093699B0B9B039361CFE7897820001B
:10530000FFF7DAFBC9E72000FFF738FFC6E7012304
:10531000154ACCE70B780020DB06BFD12000FFF751
:10532000A7FC2A20AA78104BFF301A6002230D4AEE
:1053300011680C5C23434A240B54FF340B5D29385D
:10534000FF3803430B55D4E70123084AAFE78A78B7
:10535000064B1A60B7E70020A0E7C046B608002059
:10536000BE0800204C0D0020440D0020480D0020F8
:10537000474BF7B51C780600002C7CD1454D2B68B7
:105380009B8B1B070ED521002000FFF763F82A68CE
:1053900010231100FF31887A03438B723E4B1C604F
:1053A000082393832B689A8B52071FD504229A8374
:1053B0003A4A1378002B0AD01378013BDBB2137002
:1053C0001378002B03D101210B20FEF765FB344A33
:1053D0001378002B0AD01378013BDBB213701378DB
:1053E000002B03D101210C20FEF756FB2B68FF3365
:1053F0001A7AD2061ED510221A72597930320A430F
:105400005A716023274930000A781A4234D1FFF7D5
:105410002DFF2B68FF33002831D08022997952422A
:105420000A439A711A7A520604D540221A72597A9E
:105430000A435A72012427002B681B8CA343DBB25A
:105440000193019B23413B4212D023002A68083379
:105450005B01D318DA79D20702D4DB799B0707D531
:10546000114BA200D05800280DD003681B68984744
:105470000134082CE5D1F7BDFFF742FBC9E7202135
:105480000A4A9171CEE7E1B23000FFF751FAEFE737
:10549000410D00204C0D0020440D0020B5080020D7
:1054A000B4080020800A002098080020FF50004126
:1054B00010B50248FFF75CFF10BDC04694080020FD
:1054C000014B024A1A6070474C0D00200050004109
:1054D00010B502F0C7FC10BD10B502F0CDFC10BD38
:1054E00010B50200EFF3108172B60A4B186800285D
:1054F00001D10948186018688218EFF30884A242A5
:1055000004D21A60002900D162B610BD01204042C9
:10551000F8E7C046500E0020880E00203F2070475C
:1055200013B56B460268D97107335468190001221C
:10553000A04716BD10B502210069FFF7C7FB034B5A
:105540001B6801335A1E9341181810BD90000020AB
:1055500010B503210069FFF7CFFB10BD10B5032183
:105560000069FFF797FB10BD10B5054C23685A1C66
:1055700004D103685B69984703002060180010BDE0
:1055800090000020074B0200186810B5411C03D0A2
:10559000012252421A6010BD02211069FFF796FCE9
:1055A000F9E7C0469000002010B51300094A040036
:1055B000D079C0B2002805D1627E002A02D0012332
:1055C000636006E00A0020690321FFF78DFC0028D4
:1055D000F5D010BD4400002010B5037842220233FC
:1055E000037002490248FFF72BFD10BD4C0000205C
:1055F0009408002010B50178020043780020A1290A
:1056000008D1212B05D1072216491748FFF718FDAD
:10561000012010BD2129FCD1202B13D107221149D3
:105620001148FFF7ADFB96220E4BD200196891424C
:105630000ED10124D87904400AD1FA20FEF7DCFA11
:105640000020E6E7222B06D19278064BDA71EAE7D2
:10565000FEF7D8FAF4E7232BDBD15288034B1A600C
:10566000D7E7C046440000209408002040000020F6
:10567000FA220021054B92009A60054A59600832CF
:105680001A60044A19761A617047C046540E002009
:105690000CBE00009408002070B50E000025446880
:1056A000002C0BD0236831005B682000984700284D
:1056B00002DB2D18E468F3E701256D42280070BD78
:1056C00070B50D004468002C08D0236829009B6841
:1056D00020009847002802D1E468F4E7200070BD5C
:1056E00070B50D004468002C08D0236829001B68A1
:1056F00020009847002802D1E468F4E7200070BD3C
:1057000070B50D004468002C08D023682900DB68C0
:1057100020009847002802D1E468F4E7200070BD1B
:105720000121054A10B5136804480B4003D1044C0D
:1057300043600480116010BD700E0020740E0020C4
:105740000204000070B50400012304CC05001178A8
:1057500020000B43137080220021520002F09FFBB7
:105760002B689A78D207FCD49A789207F9D45C62B5
:1057700070BD00001F22144BF0B51B68590B9C0C28
:105780009B01114014405B0F914200D105211F2C59
:1057900000D1023C072B00D1043B02688F01158D1C
:1057A0000A491F2629403943118505683440298D4F
:1057B0000A00B24322432A8500681903028D044B74
:1057C00013400B430385F0BD246080003FF8FFFFCA
:1057D000FF8FFFFF0B0010B50100180002F010FB57
:1057E00010BD10B5FFF778FE10BD000002B4714681
:1057F00049084900095C49008E4402BC7047C04614
:10580000002243088B4274D303098B425FD3030AFF
:105810008B4244D3030B8B4228D3030C8B420DD312
:10582000FF22090212BA030C8B4202D312120902A0
:1058300065D0030B8B4219D300E0090AC30B8B42DE
:1058400001D3CB03C01A5241830B8B4201D38B038C
:10585000C01A5241430B8B4201D34B03C01A524131
:10586000030B8B4201D30B03C01A5241C30A8B4274
:1058700001D3CB02C01A5241830A8B4201D38B025F
:10588000C01A5241430A8B4201D34B02C01A524103
:10589000030A8B4201D30B02C01A5241CDD2C30975
:1058A0008B4201D3CB01C01A524183098B4201D3F1
:1058B0008B01C01A524143098B4201D34B01C01ADC
:1058C000524103098B4201D30B01C01A5241C30854
:1058D0008B4201D3CB00C01A524183088B4201D3C3
:1058E0008B00C01A524143088B4201D34B00C01AAF
:1058F0005241411A00D20146524110467047FFE71B
:1059000001B5002000F0F0F802BDC0460029F7D034
:1059100076E7704703460B437FD4002243088B424F
:1059200074D303098B425FD3030A8B4244D3030B26
:105930008B4228D3030C8B420DD3FF22090212BAEB
:10594000030C8B4202D31212090265D0030B8B4267
:1059500019D300E0090AC30B8B4201D3CB03C01A51
:105960005241830B8B4201D38B03C01A5241430B2C
:105970008B4201D34B03C01A5241030B8B4201D31C
:105980000B03C01A5241C30A8B4201D3CB02C01A87
:105990005241830A8B4201D38B02C01A5241430AFF
:1059A0008B4201D34B02C01A5241030A8B4201D3EE
:1059B0000B02C01A5241CDD2C3098B4201D3CB0195
:1059C000C01A524183098B4201D38B01C01A524144
:1059D00043098B4201D34B01C01A524103098B4248
:1059E00001D30B01C01A5241C3088B4201D3CB0033
:1059F000C01A524183088B4201D38B00C01A524116
:105A000043088B4201D34B00C01A5241411A00D2C5
:105A100001465241104670475DE0CA0F00D049422E
:105A2000031000D34042534000229C4603098B429E
:105A30002DD3030A8B4212D3FC22890112BA030A26
:105A40008B420CD3890192118B4208D389019211A8
:105A50008B4204D389013AD0921100E08909C3092D
:105A60008B4201D3CB01C01A524183098B4201D32F
:105A70008B01C01A524143098B4201D34B01C01A1A
:105A8000524103098B4201D30B01C01A5241C30892
:105A90008B4201D3CB00C01A524183088B4201D301
:105AA0008B00C01A5241D9D243088B4201D34B001C
:105AB000C01A5241411A00D20146634652415B105E
:105AC000104601D34042002B00D54942704763463F
:105AD0005B1000D3404201B5002000F005F802BD84
:105AE0000029F8D016E770477047C0468446101C5E
:105AF00062468C46191C634600E0C0461FB501F0A3
:105B0000FDF9002801D40021C8421FBD10B501F0E5
:105B100055F94042013010BD10B501F0EFF90028F1
:105B200001DB002010BD012010BDC04610B501F002
:105B3000E5F9002801DD002010BD012010BDC046A0
:105B400010B501F077F9002801DC002010BD01201C
:105B500010BDC04610B501F06DF9002801DA002033
:105B600010BD012010BDC04670B500220C4B0400D2
:105B70000D00FFF7EFFF002804D12000290001F0FD
:105B8000FBFF70BD064B00222000290001F090FCB5
:105B900001F0F2FF80231B069C466044F1E7C046FB
:105BA0000000E041F8B557464E464546DE46440201
:105BB000E0B546008846640A360EC70F002E63D053
:105BC000FF2E24D08023E400DB041C4300239946ED
:105BD0009B467F3E434642465D02D20F5B006D0A04
:105BE0001B0E9046924665D0FF2B55D08022002197
:105BF000ED00D2047F3B1543F61A43464A467B40EC
:105C00000F2A00D98DE06D48920082589746002CEB
:105C100054D108239946063BFF269B46DAE7002528
:105C2000534602291BD0032900D1BFE0012928D007
:105C300030007F30002820DD6A0704D00F222A4080
:105C4000042A00D004352A0103D530005C4A803094
:105C50001540FE2803DCAC01640AC2B201E0FF2259
:105C600000246402D205600ADB07104318433CBCE1
:105C700090469946A246AB46F8BD0122101A1B2851
:105C80007CDD00220024ECE7002C1DD10423994682
:105C9000033B00269B469DE7FF3E002D20D10221BD
:105CA00043464A467B400A430F2AD8D845489200CB
:105CB00082589746002D19D10121F1E70C2399460E
:105CC000093BFF269B4685E7200002F07BF87626FD
:105CD000431F9C4000237642361A99469B4679E73B
:105CE0004A4603231A439146032186E7280002F01F
:105CF00069F8431F36189D40763600217DE78024E1
:105D00000023E403FF22ACE700258023DB031C42D1
:105D100028D01D4226D12B435C02640A4346FF2251
:105D20009FE762016C01A24224D21B210025013EA3
:105D3000012710006D005200002801DB944201D8B9
:105D4000121B3D4301390029F3D11400621E944116
:105D500025436DE7BA46594625005346022900D02F
:105D600061E77CE78023DB031C436402640A3B0099
:105D7000FF2276E7121B1A210125D9E79E362A0059
:105D8000B5402C00C240651EAC411443620704D0EC
:105D90000F222240042A00D00434620103D4A4015B
:105DA000640A00225DE7012200245AE78024E4030C
:105DB0002C436402640AFF2253E7C04634BE00004D
:105DC000FFFFFFF774BE0000F0B54E46574645464C
:105DD000DE46E0B543025B0A450083B00F1C9946DE
:105DE0002D0EC60F002D57D0FF2D24D08020DB00B4
:105DF000C0041843002381469A469B467F3D7C029F
:105E00007A00FB0F640A120E984623D0FF2A4BD06B
:105E1000E30080240020E4047F3A1C43AD186B1C8F
:105E200047460193534677403A000F2B48D87D49A7
:105E30009B00CB589F46002B00D085E008339A4644
:105E4000063B9B467C027A00FB0FFF25640A120E7C
:105E50009846DBD1002C00D090E0524601231A4333
:105E600092460120DBE74C4658461700022824D012
:105E7000032800D1CFE00022002301284DD1580291
:105E8000D205400AFF071043384303B03CBC90469C
:105E90009946A246AB46F0BD002B5BD104239A463F
:105EA000033B00259B46AAE7FF35002C60D15246F4
:105EB00002231A4392460220B1E7FF220023DEE7C5
:105EC0004B461B0C9C464B462604360C1804614678
:105ED0003300220C6446000C43434E43504354436A
:105EE00080191A0C1218964203D9802149028C4657
:105EF00064441B041B0C1004C01883015E1EB341D4
:105F0000800E1843130C1B199B0103431C00230133
:105F100079D5012362081C401443019A7F32002A7C
:105F20004DDD630704D00F232340042B00D004343D
:105F3000230103D53C4B019A1C408032FE2ABCDC75
:105F4000A3015B0AD2B29AE70C239A46093BFF25CC
:105F50009B4654E7180001F035FF4A46431F76255B
:105F60009A4000236D4291462D1A9A469B4646E779
:105F7000524603231A439246032050E7200001F0C3
:105F800021FF431F2D1A9C40763D002047E78023C8
:105F90000027DB03FF2272E7424666E74C463200E9
:105FA000584662E780234A46DB031A4222D01C424D
:105FB00020D123435B025B0A4746FF225FE70123B0
:105FC0009A1A1B2A21DC23000199D3409E318C4070
:105FD0001A0023005C1EA34113435A0704D00F226A
:105FE0001A40042A00D004335A0111D49B015B0AE1
:105FF000002244E780234A46DB0313435B025B0A2B
:106000003700FF223BE7019587E70022002336E7B0
:106010000122002333E78023DB0323435B025B0A77
:10602000FF222CE7B4BE0000FFFFFFF74102420051
:10603000C30F490A120E00207E2A0DD99D2A0CD8C2
:10604000802000040143952A0ADC9620821AD14060
:106050004842002B00D108007047034A9818FBE71C
:10606000963A9140F4E7C046FFFFFF7F70B50028E5
:106070003DD0C317C5185D40C40F280001F0A2FE33
:106080009E22121A962A07DCD2B2082833DD08387D
:1060900085406802400A23E0992A0BDD0523290088
:1060A0001B1AD94003001B339D402B005D1EAB41E2
:1060B00019430D00052801DD431F9D402B000F49AA
:1060C0000B406E0709D00F263540042D05D0043350
:1060D0005D0102D59F220B40121A9B01580AD2B2D1
:1060E0004002D205400AE4071043204370BD00245B
:1060F00000220020F4E76802400AF1E7FFFFFFFBFF
:1061000070B5041E34D001F05DFE9E22121A962A4C
:1061100007DCD2B208282EDD083884406002400A2D
:1061200021E0992A09DD030021001B3399404B1E11
:10613000994105231B1ADC400C43052801DD431F50
:106140009C4023000D490B40650709D00F252C40CA
:10615000042C05D004335C0102D59F220B40121A97
:106160009B01580AD2B24002D205400A104370BDCA
:1061700000220020F7E76002400AF4E7FFFFFFFB80
:10618000F0B54F464646D6460C000903C0B5490A4D
:10619000470F5E0039431F03DB0F9C4665007B0AF7
:1061A000570F1F436D0DE40F760DA146C000B84692
:1061B000D200AB1B64457BD0002B5FDD002E00D0EE
:1061C000A4E03E00164300D112E15E1E002E00D076
:1061D0009EE1871A4346B84280410125C91A4042D0
:1061E000091A0B0200D431E149024E0A002E00D1F7
:1061F0006EE1300001F0E6FD0300083B1F2B00DDDF
:1062000061E120223900D21A9E40D1409F400E43C6
:106210009D4200DD51E15D1B6B1C1F2B00DD7CE10D
:106220002021C91A3D0030008F408840DD40791E92
:106230008F41310007222843D940002507433A40C7
:10624000002A09D00F233B40042B05D03B1DBB4245
:10625000BF417F42C9191F000B0200D426E26A1C0D
:10626000C64B55056D0D9A4200D106E1C44AFF08A0
:106270000A40530752023B43120B8EE0002B00D022
:10628000B8E06B1C5B055B0D012B00DC30E1871A6D
:106290004346B842B641CB1A76429E1B330200D524
:1062A0004CE13B003343A1D100220024002570E0E3
:1062B000002B00DCE5E0002E00D183E0AF4EB542BC
:1062C00060D0802636043743B846382B00DC3EE1E8
:1062D000434613431F007A1E97413F18874280416F
:1062E000404209180B0200D4B0E0A44B01359D4296
:1062F00000D1C3E0A24A7B080A4001210F401F439E
:106300005108D30707221F433A4099E79B4EB542F5
:1063100038D0802636043743B846382B00DDDCE021
:106320001F2B00DC30E11E004746203EF740BC46F4
:10633000202B04D04026F31A46469E4032431700D5
:1063400063467A1E97411F43CCE0002B00D104E244
:106350004346134300D159E14B07C008184380233B
:10636000C9081B03194208D04546ED081D4204D157
:106370004346D008590708432900420FC9007F4D02
:106380001143C0004B07CA087C49C00803438D4233
:1063900068D012036D05120B6D0D00211203180059
:1063A000130B0A0D12051A43764B2D0513402B4390
:1063B0005B00E4075B08234319001CBC9046994628
:1063C000A246F0BD3E00164312D05E1E002E00D045
:1063D00000E1871887428041414440420918012565
:1063E0000B0233D5022585E7644633004146100091
:1063F0001D00C7E7002D00D0DAE00C000443F3D005
:106400005C1C00D19FE15D4CA64200D12FE1DB4333
:10641000382B00DD66E11F2B00DD83E12024050021
:10642000E41A0F00DD40D940A0404346A7405B1A64
:10643000441EA04198462F433843171ABA4292414E
:1064400043465242991A64463500CAE607223A404A
:10645000002A00D0F6E64B07CA084849FF083B432C
:106460008D4296D11900114300D19EE1802109038C
:106470000A431203120B414D8FE71500002200233F
:106480008BE7002B00D0C7E06B1C5F057F0D012F51
:1064900000DCF1E0394DAB4200D1B9E085180A00CB
:1064A000854289414244494251180722CF076D086D
:1064B0002F4349083A401D00C2E607223049ED1A31
:1064C00031403A40BCE63E002838864000279FE62F
:1064D000380001F077FC20308EE6434613431F005E
:1064E0007A1E9741C71BB84280414042091A78E69C
:1064F0000E003B0006431343002D61D1002E00D057
:10650000F4E0002B00D11BE164463900100039E7AC
:106510001A4FBB427AD03300FFE630001F3DE840FF
:10652000202B03D04021CB1A9E4037437B1E9F4136
:10653000072207433A400021002589E7171A4346FE
:10654000BA42B641591A76428E1B64464EE61F2B5C
:1065500000DDADE020264746F61AB740B9461700E1
:10656000B246DF404E463E4337005646B240561EC6
:10657000B24117434246DA408918AEE6FF070000F1
:10658000FFFF7FFFFFFF0F8020264746F61AB74028
:10659000B9461700B246DF404E463E4337005646E6
:1065A000B240561EB24117434246DA40891A99E773
:1065B0007F4CA6425BD0802424045B42214327E722
:1065C000002E0CD1002B00D1CBE064463900100026
:1065D000774DD7E6764FBB4218D0330075E6002BD7
:1065E00014D04B07C00818438023C9081B03194265
:1065F00007D0FC081C4204D17907D0080843E146C3
:1066000021004C46420FC9001143C000684DB9E655
:106610001D0000220023C0E6002D5BD10D000543C4
:1066200000D1E2E65D1C00D1B0E0614DAE421FD06A
:10663000DB43382B71DC1F2B00DD96E020250F009B
:10664000ED1AAF40B9460700AA46DF404D463D432C
:106650002F005546A840D940451EA841884407430D
:10666000BF18974292415142414435003AE6644690
:1066700035004146100085E60B000343002D00D095
:1066800063E6002BF5D04346134300D17AE6871822
:106690008742804107224144404209183A400B0298
:1066A00000D4D5E6434B01351940C9E5380069E609
:1066B0001E004746203EF740BC46202B04D0402613
:1066C000F31A46469E403243170063467A1E9741AE
:1066D0001F4302E6364DAE42CAD080252D045B42F0
:1066E0002943A6E70843411E8841A6E6002B00D1B6
:1066F00048E6871A4346B842B641CB1A76429E1BFB
:1067000033024BD5171A4346BA429241591A5242A4
:10671000891A072264463A4092E501430F00791E28
:106720008F419DE71C000F00203CE740202B03D049
:106730004024E31A99400843411E884138437CE6CF
:106740000022002425E6171A4346BA429241591AFC
:106750005242891A6446350043E541461000144D03
:1067600010E680220024120380E61D000F00203D69
:10677000EF40BC46202B03D04025EB1A994008433C
:1067800007006346781E87411F4369E787189742D1
:106790009B4141445B42C9183500A3E53B003343AC
:1067A000CED0072231003A4052E600231A00F4E529
:1067B000FF070000FFFF7FFFF0B55746DE464E465D
:1067C0004546E0B5834607000E03480085B0924673
:1067D0001C00360B400DCD0F002800D19DE0954BDD
:1067E000984239D08023F6001B041E43924A7B0F47
:1067F00033439946944603006344009300230026E4
:10680000FF00029323031B0B98466300E40F5246DC
:106810005B0D019400D1B3E086498B4200D19EE02C
:106820004246D100802212040A435146490F1143C7
:106830008B46814952468C4600996344CB1A00210D
:10684000D20000932B0063409A460F2E00D905E139
:106850007A4BB6009B599F465B463343994600D01E
:10686000B8E002230826002700900293CAE7CB462F
:106870003A0002990195019B9A46022927D00329E3
:1068800000D180E2012944D06D49009B8C466344CD
:106890001C00002C38DD530700D013E2D2085B4601
:1068A000DB0109D55946674B19408B468021C90049
:1068B0008C46009B63441C00634B9C4207DC5B4698
:1068C00064055F075B0217431B0B620D02E00023A8
:1068D0000027584A00211B031C0B0B0D1B052343EB
:1068E00014055A4A380013401C4353466400DB0722
:1068F00064081C43210005B03CBC90469946A24662
:10690000AB46F0BD0122524201231B1B382B00DC99
:10691000ADE1002200230027DCE75B4633439946C4
:106920005ED0002E00D18AE1300001F04BFA030066
:106930000B3B1C2B00DD7BE11D22D31A5A460100C4
:10694000DA4008398E4013005F46334399468F4042
:106950003F4B00261B1A00930023029352E7414647
:1069600053460B433B499B468C46009B6344009334
:106970005B46002B3BD1022300221E43022161E72C
:10698000434613439B4637D04346002B00D162E178
:10699000404601F017FA03000B3B1C2B00DD53E1CE
:1069A00002004146083A914088461D21CB1A5146C3
:1069B000D9400B0041460B439B46534693401A0077
:1069C000009B25499C46604403008C466344009329
:1069D000002137E70323B14600900C26029311E70C
:1069E0000023009301330426002702930AE70323C0
:1069F000C3461E43032125E701331E430022012124
:106A000020E700239A46802300271B03094A61E7F9
:106A1000802349461B03194200D1E2E0594619423E
:106A200000D0DEE00B431B0317001B0BA246014AFC
:106A300050E7C046FF07000001FCFFFFF4BE000066
:106A4000FF030000FFFFFFFEFE070000FFFF0F80B7
:106A50000DFCFFFF01F8FFFFF3030000D94500D94B
:106A6000CBE000D1C6E03C0048460027009B013B3C
:106A700000935B46160E1B021E4313029846330416
:106A80001B0C9946310C0191FEF740FF4A464243E8
:106A90000B04210C050019438A4207D98919013DCD
:106AA0008E4203D88A4201D9851E8919881A019914
:106AB000FEF72CFF09048C464A46210464464243F3
:106AC000090C030021438A4204D98919013B8E42F3
:106AD00000D8F1E02D041D43AB464346891A4246D7
:106AE000280C12041D0C5B46140C22001B041B0C0A
:106AF0005A4303946B434443029568431B19150C96
:106B0000EB189C4203D980246402A44660441C0C08
:106B100015041B042D0C20185D19814277D373D006
:106B20000C1AA24A7D1BAF42BF419446009B7F4294
:106B30006344E01B1C00864200D1DBE00199FEF7B4
:106B4000E5FE4A4642430B04290C070019438A42DA
:106B500007D98919013F8E4203D88A4201D9871E7D
:106B60008919881A0199FEF7D1FE09044A46894617
:106B700029044D464243090C030029438A4207D9A0
:106B80008919013B8E4203D88A4201D9831E891993
:106B90003F04891A3A00039F1A43380013041B0C60
:106BA000584381460298150C6F434343454348467A
:106BB000000C8446DB1963449F4203D980204002C5
:106BC0008446654448461F0C00041B04000C7D19D4
:106BD0001818A94200D284E000D17FE001231A43B3
:106BE00057E680234A461B0313431B031B0BAA468D
:106BF0006F4A6FE6BA4200D935E74B46DC075808C2
:106C00007B081C43FF0734E70024AF4289D2474486
:106C10004745A4415B466442A4196418013BA6425F
:106C20001ED2A0426DD800D1B6E0241A9B4678E768
:106C300003005A46283B9A400027914688E658466A
:106C400001F0C0F8203072E603005246283B9A401B
:106C500093460022B4E6504601F0B4F820309AE69C
:106C6000A642E2D1B845DCD9341A9B4659E71F2B1E
:106C700065DC504C0099A4465C46614408008C4099
:106C800011008240D940501E82410C4314435A46A1
:106C9000DA401300620709D00F222240042A05D0EF
:106CA0002200141D9442894149425B181A0262D5A0
:106CB0000122002300270DE68A4200D80AE7831E3E
:106CC000891907E70F231340042B00D1E6E5171DB0
:106CD0009742924153429B44FA08E0E5002800D1D4
:106CE000D7E57118531EB14227D3A94215D358D006
:106CF0001A0073E7002B00DC04E6012300229B440A
:106D0000CDE502234744474589415B429C464942C1
:106D100089190C19E344241A03E743465F004745E9
:106D20009B41B8465B429E19023A8919A94200D09C
:106D300054E7404500D051E7ABE51A00F6E71F21C4
:106D40005F4649420C1BE740202B07D01A49009BA5
:106D50008C46634418005B4683401A43501E8241B0
:106D60003A4307270023174009D00F210023114081
:106D70001400042995D122005F075B021B0BD20887
:106D800017430022A6E5802359461B030B431B0330
:106D900017001B0B064A9DE5BD42B2D89B46002456
:106DA000BFE68045B9D31A00C3E7C046FF03000021
:106DB000FF0700001E0400003E040000F0B54F462F
:106DC0004646D6468446C0B58046194E18030F0382
:106DD0004D00000B5C0082463F0B6D0DC90F9146C4
:106DE000640DDB0F0120B5420AD0B44203D0A542A6
:106DF00001D157450CD01CBC90469946A246F0BD27
:106E000066463E43F7D1AC42F5D154461443F2D125
:106E10000120C845EFD1994207D0002DEBD1634640
:106E20001F433800471EB841E5E70020E3E7C046AE
:106E3000FF070000F0B54F464646D6464D00C0B5A8
:106E40000E03C90F8A462C491F035C008046360B8F
:106E50006D0D91463F0B640DDB0F8D421ED08C42B1
:106E600016D0002D1ED130438446002C01D13A4368
:106E700023D06246002A1AD09A4529D051460220D2
:106E80000139084001381CBC90469946A246F0BD25
:106E900039001143E5D002204042F4E73043FAD1F3
:106EA000AC420FD0002C0FD13A43E7D00CE00122C6
:106EB000013B934318000130E5E763460020002BB7
:106EC000E1D0DBE73A43E6D19A45D7D1A542D5DCFC
:106ED000A54205DBBE42D1D808D00020BE42D2D2A6
:106EE00050460123013898430130CCE7C845C5D846
:106EF0000020C845F4D3C6E7FF070000F0B54F46B1
:106F00004646D6464D00C0B50E03C90F8A462E49E7
:106F10001F035C008046360B6D0D91463F0B640DE0
:106F2000DB0F8D4218D08C4211D0002D18D1304388
:106F30008446002C1ED13A431CD163460020002B0E
:106F400030D0514602200139084001382AE039008A
:106F50001143EAD0022025E03043FBD1AC4226D0D9
:106F6000002C26D13A4324D1514602200139084051
:106F7000013817E06246002A0FD09A45E1D1A542B8
:106F800005DBBE42DDD819D00020BE420AD25046F1
:106F9000012301389843013004E00122013B93436F
:106FA000180001301CBC90469946A246F0BD3A43F9
:106FB000D0D19A45C5D1A542C3DCE0E7C845C0D8C9
:106FC0000020C845E3D3EDE7FF070000F0B55746C2
:106FD000DE464E464546E0B5834606000F034800B0
:106FE00087B092461D003F0B400DCC0F002800D10A
:106FF0006FE0DE4B984238D08023FF001B041F4314
:10700000730F3B430193DA4B0027994600239B46BD
:10701000F60081442B0369001B0B52469846490D2C
:10702000ED0F002900D185E0D04B994200D173E0EB
:107030004346DA0080231B0413435246CC48520FC8
:1070400084461343524600206144D2008944210003
:10705000694000918C46012149448A460F2F00D98E
:1070600090E0C449BF00CF59BF465B463B43019304
:1070700000D06AE102230827002681469B46C9E723
:1070800032005846019B61460091022800D175E00C
:10709000032800D1FEE1012800D02CE100230027C5
:1070A000002600253F032A0D3F0BB34812053A4343
:1070B00002401B051343009A5B00D1075B080B439A
:1070C0003000190007B03CBC90469946A246AB463A
:1070D000F0BD5B463B43019300D12FE1002F00D16F
:1070E000A5E1380000F06EFE03000B3B1C2B00DD19
:1070F00096E11D22D31A5A460100DA405E4608394D
:107100008F4013008E403B4301939C4B00271B1A7A
:10711000994600239B467DE7414653460B439349DE
:107120008C46E144002B00D01AE1022202201743D2
:1071300000228CE7134300D10DE14346002B00D120
:1071400081E1404600F03EFE02000B3A1C2A00DDC1
:1071500072E10100434608398B4098461D239A1A74
:107160005346D3401A004346134352468A40494689
:10717000081A824989468144002068E77B4B002732
:1071800000268EE7140C1204120C1100370C360482
:10719000350C794328008C462E00604360448346BA
:1071A00056432100300C80465846794340440291B2
:1071B000844506D98846802149028C46E0444146F0
:1071C00002913604010C360C00048B4681191E0C0A
:1071D0001B041B0C0391190079438C46280075434E
:1071E0006544A8465843050C45447743A94203D952
:1071F000802149028C466744290C8C4639000004E2
:10720000000C2D042D186144AB440591594604919E
:1072100001990F043F0C080C39005143424390463A
:1072200002008C46090C8B4662437C4344445C4418
:10723000A04503D98021490288464244210C884652
:1072400061460904090C8C46390059434343704395
:107250007E430F0CF6182404BE19644442448C4645
:10726000B34203D980235B0298464044029B6146A7
:107270009846049B370443449B46AB45AD416B4263
:107280000D0405992D0C8C467F196744FD18A846FE
:107290005D462D19A542A44193466442A446C344C9
:1072A000DC448F42BF4198459B4193459241A445A0
:1072B000A4415B427F421F43360C52426442BF19D5
:1072C0002243BF18624638184302D20D0399134374
:1072D0006A020A43501E82416146ED0D2A434E0266
:1072E0003243D90100D4B3E00126500832400243B2
:1072F000DE0732435B08224C5444002C62DD510708
:1073000009D00F201040042805D0101D9042924152
:1073100052429B180200D90104D580241948E40088
:10732000034054441848844200DD27E75E075B02AF
:10733000D2081F0B630516435B0DB2E60023994686
:107340000133042700269B4664E603230197814608
:107350000C279B465EE6012201201743002276E6B9
:10736000032303201F43434671E6C046FF07000086
:1073700001FCFFFF34BF0000FFFF0F800DFCFFFF8B
:10738000FF030000FFFFFFFEFE0700000023802731
:1073900000933F030026434B83E6019B3200A44643
:1073A000584670E6AC466EE6802701993F033942A5
:1073B0002DD03B422BD11F433F033F0B00951600BE
:1073C000384B6EE601252D1B382D00DD66E61F2D9E
:1073D00040DC35481C005044160082408440EE409A
:1073E000501E824134431443EB40620709D00F2200
:1073F0002240042A05D02200141D944280414042BC
:107400001B181A023ED501230027002649E68027D3
:10741000019B3F031F433F033F0B0094214B40E67A
:1074200003005A46283B9A40002601926DE65846D2
:1074300000F0C8FC203057E603005246283B9A4033
:107440001300002293E6504600F0BCFC20307BE69F
:10745000CA4650E71F201E004042041BE640202D74
:1074600003D0124C5444A3401A43501E824132436D
:1074700007260027164009D00F20002310401400D3
:107480000428B9D122005E075B021F0BD208164305
:10749000002306E680273F031F433F033F0B1600F0
:1074A000004BFEE5FF0700001E0400003E04000044
:1074B000F8B557464E464546DE460C000903E0B592
:1074C000490A460F5F0031431E03DB0F760A9B46D5
:1074D000530F3343C84E6500C000E40FD2006D0D5A
:1074E000A24681467F0D9C469046B74200D1B9E046
:1074F0005B46012673409B46EE1BA34500D183E00B
:10750000002E63DD002F00D0B1E06346134300D1AD
:1075100023E1731E002B00D0BAE1861A6346B04205
:1075200080410125C91A4042091A0B0200D447E1E3
:1075300049024B0A98464346002B00D189E1404658
:1075400000F040FC0300083B1F2B00DD7CE1202203
:107550003000D21A4146D040994002009E400A4372
:107560009D4200DD6AE15D1B6B1C1F2B00DD94E179
:10757000202110003500C91A8E40DA408840DD40D5
:10758000711E8E4111000722284300250643324018
:10759000002A09D00F233340042B05D0331DB342FA
:1075A000B641764289191E000B0200D43DE26A1CE6
:1075B000914B55056D0D9A4200D119E18F4AF6089D
:1075C0000A40570752023743120B9BE0002E00D0AF
:1075D000C5E06E1C7605760D012E00DC48E167469D
:1075E000861ACB1BB042BF417F42B8461F004346BC
:1075F000FF1A3B00B8461B0200D55FE137439AD122
:1076000000220024002579E0002E00DCFAE0002FA3
:1076100000D18DE0784B9D4267D0802367461B04E4
:107620001F43BC46382E00DC52E1634613435A1E0A
:1076300093411E1886428041404209180B0200D433
:10764000BEE06D4B01359D4200D1D2E06B4A73081C
:107650000A4001210E401E435108D30707221E4352
:10766000324095E71E00164300D045E740E7624BE5
:107670009D423AD0802367461B041F43BC46382EE8
:1076800000DDEBE01F2E00DC3AE133006746203BD3
:10769000DF403B00202E05D04027BF1B6646BE4082
:1076A000324390464646721E96413343DAE0002B41
:1076B00000D114E26346134300D168E180234E07F2
:1076C000C008C9081B030643194208D06046C00819
:1076D000184204D163460100D2085E071643F30046
:1076E0009946C900720F444D11434B46DE08424B88
:1076F0004F073743CA089D4200D16EE012036D0563
:10770000120B6D0D00211203130B0A0D12051A4303
:107710003B4B2D0513402B435B00E4075B082343E1
:10772000380019003CBC90469946A246AB46F8BDCD
:107730006346134311D0731E002B00D007E1861857
:107740008642804161444042091801250B0237D529
:1077500002257BE73E00614691463500C5E75C4661
:10776000002D00D0E1E00B000343F3D0731C00D1E7
:10777000ACE1214B9F4200D13AE1F343382B00DDCD
:107780006FE11F2B00DD8CE120250E00ED1AAE40CD
:10779000B0460600AA46DE40454635432E00554613
:1077A000D940A8406346451EA8415B1A9C46304319
:1077B000161AB242924163465242991A3D00B4E60B
:1077C00007223240002A00D0E4E60B4BF6084F07B0
:1077D0003743CA089D4200D090E73B00134300D1D5
:1077E000A6E180231B031A431203120B024D89E703
:1077F00015000022002785E7FF070000FFFF7FFF3D
:10780000FFFF0F80002E00D0C7E06B1C5E05760DD9
:10781000012E00DCF0E0C84DAB4200D1B9E0851884
:107820000A00854289416244494251180722CE0725
:107830006D082E43490832401D00A9E6BF49ED1AE4
:10784000114007223240A3E6320028388240002649
:1078500086E6300000F0B6FA203073E66346134344
:107860005A1E9341C61AB04280414042091A5CE652
:107870000E00674606431743002D5ED1002E00D050
:10788000F3E0002F00D11EE15C46614691462CE7F3
:10789000A94FBE427BD01E00F1E610001F3DE8401C
:1078A000202B03D04021CB1A9A401643731E9E41D1
:1078B0000722064332400021002583E7161A63465B
:1078C000B2428041591A40420B1A98465C4632E651
:1078D0001F2E00DDABE02027BB1B9A4663465746B0
:1078E000BB40994613004F46F3401F433B005746A9
:1078F000BA40571EBA4113436246F240891898E6CF
:107900002027BB1B9A4663465746BB409946130047
:107910004F46F3401F433B005746BA40571EBA41FB
:1079200013436246F240891A9CE7834B9F425FD023
:1079300080252D047342294320E7002E0CD1002F0F
:1079400000D1D0E05C46614691467B4DCDE67A4F52
:10795000BE421CD01E0065E6002F18D0C0084E079E
:1079600006438020C9080003014208D06346DC08B2
:10797000044204D12100DA46D2085E071643F30020
:10798000994601245346C900720F11431C406A4DA9
:10799000ABE61D0000220027B4E6002D59D10B00F4
:1079A000034300D1D6E6731C00D1B2E0624B9F4284
:1079B0001ED0F343382B6FDC1F2B00DD97E0202512
:1079C0000E00ED1AAE40B0460600AA46DE4045461F
:1079D00035432E005546A840D940451EA8418C4449
:1079E0000643B61896429241514261443D0025E655
:1079F0003D006146914678E60B000343002D00D020
:107A000055E6002BF5D06346134300D16DE686188A
:107A10008642804161444042091800220B0200D492
:107A2000D0E6464B01351940B2E5B1465DE633007C
:107A30006746203BDF403B00202E05D04027BF1B80
:107A40006646BE40324390464646721E96413343D8
:107A5000EFE5394B9F42CBD080252D04734229435B
:107A6000A8E70843411E8841A2E6002F00D13CE66A
:107A70006346861ACF1AB0429B415B42FB1A984676
:107A80001B024ED5161A6346B2429241591A52420F
:107A9000891A5C4600227BE501430E00711E8E416F
:107AA0009FE71D000E00203DEE40B046202B04D085
:107AB0004025EB1A99400843814648464346411EFB
:107AC0008841184374E60022002417E6161A63461C
:107AD000B2429241591A5242891A3D0025E5614647
